:10000000C06B032089B300004FD0030075B300001C
:1000100075B3000075B3000075B3000075B3000040
:100020000000000000000000000000006DB50000AE
:1000300075B30000000000002DB5000075B300008E
:1000400019B7000019B7000019B7000019B7000070
:1000500019B7000019B7000019B7000019B7000060
:1000600019B7000019B7000019B7000019B7000050
:1000700019B7000019B7000019B7000019B7000040
:1000800019B7000019B7000019B7000019B7000030
:1000900019B7000019B7000019B7000019B7000020
:1000A00019B7000019B7000019B7000019B7000010
:1000B00019B7000019B7000019B7000019B7000000
:1000C00019B7000019B7000019B7000019B70000F0
:1000D00019B7000019B7000019B7000019B70000E0
:1000E00019B7000019B7000019B7000019B70000D0
:1000F00019B7000019B7000019B7000019B70000C0
:1001000019B7000019B7000019B7000019B70000AF
:1001100019B7000019B7000019B7000019B700009F
:1001200019B7000019B7000019B7000019B700008F
:1001300019B7000019B7000019B7000019B700007F
:1001400019B7000019B7000019B7000019B700006F
:0401500019B70000DB
:04015400FFFFFFFFAB
:1001580081F0004102E000BF83F0004330B54FEA70
:1001680041044FEA430594EA050F08BF90EA020FDD
:100178001FBF54EA000C55EA020C7FEA645C7FEA70
:10018800655C00F0E2804FEA5454D4EB5555B8BF93
:100198006D420CDD2C4480EA020281EA030382EA04
:1001A800000083EA010180EA020281EA0303362D96
:1001B80088BF30BD11F0004F4FEA01314FF4801C69
:1001C8004CEA113102D0404261EB410113F0004F7B
:1001D8004FEA03334CEA133302D0524263EB430332
:1001E80094EA050F00F0A780A4F10104D5F1200ED0
:1001F8000DDB02FA0EFC22FA05F2801841F100012B
:1002080003FA0EF2801843FA05F359410EE0A5F1FE
:1002180020050EF1200E012A03FA0EFC28BF4CF02F
:10022800020C43FA05F3C01851EBE37101F00045E5
:1002380007D54FF0000EDCF1000C7EEB00006EEBF2
:100248000101B1F5801F1BD3B1F5001F0CD349087C
:100258005FEA30004FEA3C0C04F101044FEA4452D3
:1002680012F5800F80F09A80BCF1004F08BF5FEA5A
:10027800500C50F1000041EB045141EA050130BD3A
:100288005FEA4C0C404141EB0101013C28BFB1F54C
:10029800801FE9D291F0000F04BF01460020B1FA97
:1002A80081F308BF2033A3F10B03B3F120020CDA6A
:1002B8000C3208DD02F1140CC2F10C0201FA0CF048
:1002C80021FA02F10CE002F11402D8BFC2F1200CAD
:1002D80001FA02F120FA0CFCDCBF41EA0C01904063
:1002E800E41AA2BF01EB0451294330BD6FEA0404AC
:1002F8001F3C1CDA0C340EDC04F11404C4F1200297
:1003080020FA04F001FA02F340EA030021FA04F3A8
:1003180045EA030130BDC4F10C04C4F1200220FAFF
:1003280002F001FA04F340EA0300294630BD21FA3D
:1003380004F0294630BD94F0000F83F4801306BF03
:1003480081F480110134013D4EE77FEA645C18BFF7
:100358007FEA655C29D094EA050F08BF90EA020F8E
:1003680005D054EA000C04BF1946104630BD91EA86
:10037800030F1EBF0021002030BD5FEA545C05D189
:100388004000494128BF41F0004130BD14F58004C8
:100398003CBF01F5801130BD01F0004545F0FE413C
:1003A80041F470014FF0000030BD7FEA645C1ABF71
:1003B800194610467FEA655C1CBF0B46024650EAA8
:1003C800013406BF52EA033591EA030F41F40021D4
:1003D80030BD00BF90F0000F04BF0021704730B55A
:1003E8004FF4806404F132044FF000054FF000012F
:1003F80050E700BF90F0000F04BF0021704730B5F0
:100408004FF4806404F1320410F0004548BF4042C4
:100418004FF000013EE700BF42004FEAE2014FEA19
:1004280031014FEA02701FBF12F07F4393F07F4FF4
:1004380081F06051704732F07F4208BF704793F0F7
:100448007F4F04BF41F40021704730B54FF460740A
:1004580001F0004521F000411CE700BF50EA01020D
:1004680008BF704730B54FF000050AE050EA0102B6
:1004780008BF704730B511F0004502D5404261EB26
:1004880041014FF4806404F132045FEA915C3FF467
:10049800D8AE4FF003025FEADC0C18BF03325FEA04
:1004A800DC0C18BF033202EBDC02C2F1200300FAB5
:1004B80003FC20FA02F001FA03FE40EA0E0021FADA
:1004C80002F11444BDE600BF70B54FF0FF0C4CF4C8
:1004D800E06C1CEA11541DBF1CEA135594EA0C0F7A
:1004E80095EA0C0F00F0DEF82C4481EA030621EAB5
:1004F8004C5123EA4C5350EA013518BF52EA0335F0
:1005080041F4801143F4801338D0A0FB02CE4FF0A1
:100518000005E1FB02E506F00042E0FB03E54FF0D1
:100528000006E1FB03569CF0000F18BF4EF0010EC9
:10053800A4F1FF04B6F5007F64F5407404D25FEAC5
:100548004E0E6D4146EB060642EAC62141EA555178
:100558004FEAC52040EA5E504FEACE2EB4F1FD0CBA
:1005680088BFBCF5E06F1ED8BEF1004F08BF5FEA38
:10057800500E50F1000041EB045170BD06F00046EA
:1005880046EA010140EA020081EA0301B4EB5C0497
:10059800C2BFD4EB0C0541EA045170BD41F480118F
:1005A8004FF0000E013C00F3AB8014F1360FDEBFB4
:1005B800002001F0004170BDC4F10004203C35DA90
:1005C8000C341BDC04F11404C4F1200500FA05F313
:1005D80020FA04F001FA05F240EA020001F00042B4
:1005E80021F0004110EBD37021FA04F642EB06012A
:1005F8005EEA430E08BF20EAD37070BDC4F10C0454
:10060800C4F1200500FA04F320FA05F001FA04F217
:1006180040EA020001F0004110EBD37041F1000103
:100628005EEA430E08BF20EAD37070BDC4F120050E
:1006380000FA05F24EEA020E20FA04F301FA05F276
:1006480043EA020321FA04F001F0004121FA04F21E
:1006580020EA020000EBD3705EEA430E08BF20EAEE
:10066800D37070BD94F0000F0FD101F00046400028
:1006780041EB010111F4801F08BF013CF7D041EAAA
:10068800060195F0000F18BF704703F000465200AE
:1006980043EB030313F4801F08BF013DF7D043EA7F
:1006A8000603704794EA0C0F0CEA135518BF95EA35
:1006B8000C0F0CD050EA410618BF52EA4306D1D1BC
:1006C80081EA030101F000414FF0000070BD50EADB
:1006D800410606BF1046194652EA430619D094EA65
:1006E8000C0F02D150EA013613D195EA0C0F05D14F
:1006F80052EA03361CBF104619460AD181EA0301A3
:1007080001F0004141F0FE4141F470014FF000005A
:1007180070BD41F0FE4141F4780170BD70B54FF0F5
:10072800FF0C4CF4E06C1CEA11541DBF1CEA135575
:1007380094EA0C0F95EA0C0F00F0A7F8A4EB050457
:1007480081EA030E52EA03354FEA013100F088804E
:100758004FEA03334FF0805545EA131343EA126317
:100768004FEA022245EA111545EA10654FEA0026CC
:100778000EF000419D4208BF964244F1FD0404F585
:10078800407402D25B084FEA3202B61A65EB0305E1
:100798005B084FEA32024FF480104FF4002CB6EB9E
:1007A800020E75EB030E22BFB61A754640EA0C001E
:1007B8005B084FEA3202B6EB020E75EB030E22BF5E
:1007C800B61A754640EA5C005B084FEA3202B6EB9F
:1007D800020E75EB030E22BFB61A754640EA9C005E
:1007E8005B084FEA3202B6EB020E75EB030E22BF2E
:1007F800B61A754640EADC0055EA060E18D04FEAEC
:10080800051545EA16754FEA06164FEAC30343EA8B
:1008180052734FEAC2025FEA1C1CC0D111F4801F58
:100828000BD141EA00014FF000004FF0004CB6E751
:1008380011F4801F04BF01430020B4F1FD0C88BFF0
:10084800BCF5E06F3FF6AFAEB5EB030C04BFB6EBFB
:10085800020C5FEA500C50F1000041EB045170BDEE
:100868000EF0004E4EEA113114EB5C04C2BFD4EB1B
:100878000C0541EA045170BD41F480114FF0000E9F
:10088800013C90E645EA060E8DE60CEA135594EA1B
:100898000C0F08BF95EA0C0F3FF43BAF94EA0C0F1E
:1008A8000AD150EA01347FF434AF95EA0C0F7FF493
:1008B80025AF104619462CE795EA0C0F06D152EAE7
:1008C80003353FF4FDAE1046194622E750EA4106CB
:1008D80018BF52EA43067FF4C5AE50EA41047FF4DC
:1008E8000DAF52EA43057FF4EBAE12E74FF0FF3C41
:1008F80006E000BF4FF0010C02E000BF4FF0010C12
:100908004DF804CD4FEA410C7FEA6C5C4FEA430C8A
:1009180018BF7FEA6C5C1BD001B050EA410C0CBFD9
:1009280052EA430C91EA030F02BF90EA020F00203B
:10093800704710F1000F91EA030F58BF994208BFA2
:1009480090422CBFD8176FEAE37040F0010070475F
:100958004FEA410C7FEA6C5C02D150EA013C07D1B6
:100968004FEA430C7FEA6C5CD6D152EA033CD3D001
:100978005DF8040B704700BF8446104662468C46FB
:100988001946634600E000BF01B5FFF7B7FF00282E
:1009980048BF10F1000F01BD4DF808EDFFF7F4FF57
:1009A8000CBF012000205DF808FB00BF4DF808EDE2
:1009B800FFF7EAFF34BF012000205DF808FB00BF05
:1009C8004DF808EDFFF7E0FF94BF012000205DF827
:1009D80008FB00BF4DF808EDFFF7CEFF94BF0120DC
:1009E80000205DF808FB00BF4DF808EDFFF7C4FFD5
:1009F80034BF012000205DF808FB00BF4FEA410228
:100A080012F5001215D211D56FF47873B3EB625258
:100A180012D94FEAC12343F0004343EA505311F07F
:100A2800004F23FA02F018BF404270474FF0000011
:100A3800704750EA013005D111F0004008BF6FF04F
:100A4800004070474FF00000704700BF4A0011D2C5
:100A580012F5001211D20DD56FF47873B3EB625210
:100A68000ED44FEAC12343F0004343EA505323FA1C
:100A780002F070474FF00000704750EA013002D191
:100A88004FF0FF3070474FF0000070474FEA4102C7
:100A9800B2F1E04324BFB3F5001CDCF1FE5C0DD9D4
:100AA80001F0004C4FEAC0024CEA5070B2F1004F1E
:100AB80040EB830008BF20F00100704711F0804F21
:100AC80021D113F13872BCBF01F00040704741F4E6
:100AD80080114FEA5252C2F11802C2F1200C10FAEA
:100AE8000CF320FA02F018BF40F001004FEAC123CE
:100AF8004FEAD32303FA0CFC40EA0C0023FA02F372
:100B08004FEA4303CCE77FEA625307D150EA013347
:100B18001EBF4FF0FE4040F44000704701F0004017
:100B280040F0FE4040F40000704700BF80F00040F5
:100B380002E000BF81F0004142001FBF5FEA4103AD
:100B480092EA030F7FEA226C7FEA236C6AD04FEAAD
:100B58001262D2EB1363C1BFD218414048404140F2
:100B6800B8BF5B42192B88BF704710F0004F40F4A4
:100B7800000020F07F4018BF404211F0004F41F4C0
:100B8800000121F07F4118BF494292EA030F3FD08C
:100B9800A2F1010241FA03FC10EB0C00C3F120039F
:100BA80001FA03F100F0004302D5494260EB40002E
:100BB800B0F5000F13D3B0F1807F06D340084FEA99
:100BC800310102F10102FE2A51D2B1F1004F40EB8E
:100BD800C25008BF20F0010040EA030070474900F6
:100BE80040EB0000013A28BFB0F5000FEDD2B0FA93
:100BF80080FCACF1080CB2EB0C0200FA0CF0AABFB6
:100C080000EBC25052421843BCBFD0401843704753
:100C180092F0000F81F4000106BF80F40000013259
:100C2800013BB5E74FEA41037FEA226C18BF7FEA30
:100C3800236C21D092EA030F04D092F0000F08BF72
:100C48000846704790EA010F1CBF0020704712F059
:100C58007F4F04D1400028BF40F00040704712F198
:100C680000723CBF00F50000704700F0004343F0FD
:100C7800FE4040F4000070477FEA226216BF084633
:100C88007FEA23630146420206BF5FEA412390EAF6
:100C9800010F40F4800070474FF0000304E000BFEC
:100CA80010F0004348BF40425FEA000C08BF70479D
:100CB80043F0964301464FF000001CE050EA010261
:100CC80008BF70474FF000030AE000BF50EA010276
:100CD80008BF704711F0004302D5404261EB410163
:100CE8005FEA010C02BF84460146002043F0B64388
:100CF80008BFA3F18053A3F50003BCFA8CF2083AAD
:100D0800A3EBC25310DB01FA02FC634400FA02FCB5
:100D1800C2F12002BCF1004F20FA02F243EB0200BC
:100D280008BF20F00100704702F1200201FA02FC1E
:100D3800C2F1200250EA4C0021FA02F243EB020011
:100D480008BF20EADC7070474FF0FF0C1CEAD05255
:100D58001EBF1CEAD15392EA0C0F93EA0C0F6FD016
:100D68001A4480EA010C400218BF5FEA41211ED0F4
:100D78004FF0006343EA501043EA5111A0FB0131E0
:100D88000CF00040B1F5000F3EBF490041EAD371B5
:100D98005B0040EA010062F17F02FD2A1DD8B3F131
:100DA800004F40EBC25008BF20F00100704790F0A0
:100DB800000F0CF0004C08BF49024CEA502040EAF2
:100DC80051207F3AC2BFD2F1FF0340EAC2507047B8
:100DD80040F400004FF00003013A5DDC12F1190FF6
:100DE800DCBF00F000407047C2F10002410021FA68
:100DF80002F1C2F1200200FA02FC5FEA310040F180
:100E0800000053EA4C0308BF20EADC70704792F0F8
:100E1800000F00F0004C02BF400010F4000F013A30
:100E2800F9D040EA0C0093F0000F01F0004C02BF2B
:100E3800490011F4000F013BF9D041EA0C018FE79A
:100E48000CEAD15392EA0C0F18BF93EA0C0F0AD0A0
:100E580030F0004C18BF31F0004CD8D180EA0100C6
:100E680000F00040704790F0000F17BF90F0004F5F
:100E7800084691F0000F91F0004F14D092EA0C0F41
:100E880001D142020FD193EA0C0F03D14B0218BFD4
:100E9800084608D180EA010000F0004040F0FE401A
:100EA80040F40000704740F0FE4040F440007047B6
:100EB8004FF0FF0C1CEAD0521EBF1CEAD15392EA35
:100EC8000C0F93EA0C0F69D0A2EB030280EA010C25
:100ED80049024FEA402037D04FF0805343EA1111BE
:100EE80043EA10130CF000408B4238BF5B0042F11C
:100EF8007D024FF4000C8B4224BF5B1A40EA0C00C1
:100F0800B3EB510F24BFA3EB510340EA5C00B3EBF2
:100F1800910F24BFA3EB910340EA9C00B3EBD10FE0
:100F280024BFA3EBD10340EADC001B0118BF5FEA32
:100F38001C1CE0D1FD2A3FF650AF8B4240EBC2505B
:100F480008BF20F0010070470CF0004C4CEA50201C
:100F58007F32C2BFD2F1FF0340EAC250704740F46B
:100F680000004FF00003013A37E792F0000F00F05D
:100F7800004C02BF400010F4000F013AF9D040EADB
:100F88000C0093F0000F01F0004C02BF490011F46F
:100F9800000F013BF9D041EA0C0195E70CEAD15367
:100FA80092EA0C0F08D142027FF47DAF93EA0C0F4E
:100FB8007FF470AF084676E793EA0C0F04D14B0232
:100FC8003FF44CAF08466EE730F0004C18BF31F0E4
:100FD800004CCAD130F000427FF45CAF31F00043DE
:100FE8007FF43CAF5FE700BF4FF0FF3C06E000BF77
:100FF8004FF0010C02E000BF4FF0010C4DF804CD9A
:101008004FEA40024FEA41037FEA226C18BF7FEAA9
:10101800236C11D001B052EA530C18BF90EA010FAB
:1010280058BFB2EB030088BFC81738BF6FEAE1703A
:1010380018BF40F0010070477FEA226C02D15FEAD6
:10104800402C05D17FEA236CE4D15FEA412CE1D042
:101058005DF8040B704700BF844608466146FFE709
:101068000FB5FFF7C9FF002848BF10F1000F0FBDEB
:101078004DF808EDFFF7F4FF0CBF012000205DF8E4
:1010880008FB00BF4DF808EDFFF7EAFF34BF012069
:1010980000205DF808FB00BF4DF808EDFFF7E0FF02
:1010A80094BF012000205DF808FB00BF4DF808ED53
:1010B800FFF7D2FF94BF012000205DF808FB00BFB6
:1010C8004DF808EDFFF7C8FF34BF012000205DF898
:1010D80008FB00BF7BB972B90029BEBF00204FF0E2
:1010E800004106E008BF00281CBF6FF000414FF028
:1010F800FF3000F077B8ADF1080C6DE904CE002997
:1011080009DB002B1ADB00F082F8DDF804E0DDE9EA
:10111800022304B07047404261EB4101002B1BDB06
:1011280000F075F8DDF804E0DDE9022304B0404280
:1011380061EB4101524263EB43037047524263EB58
:10114800430300F064F8DDF804E0DDE9022304B0AD
:10115800404261EB41017047524263EB430300F0A8
:1011680056F8DDF804E0DDE9022304B0524263EBEF
:101178004303704753B94AB9002908BF00281CBF68
:101188004FF0FF314FF0FF3000F02CB8ADF1080CF4
:101198006DE904CE00F03BF8DDF804E0DDE9022358
:1011A80004B07047D0B5FFF737F900220B4B06465D
:1011B8000F46FFF789F9FFF749FC0446FFF70AF9DC
:1011C8000022074BFFF780F902460B4630463946A6
:1011D800FEF7C2FFFFF73AFC2146D0BD0000F03D04
:1011E8000000F041704700BF10B500210446FFF72A
:1011F80049FF20B92046BDE81040FFF7D3BF04F1EE
:101208000040FFF7CFFF404261EB410110BD2DE9DF
:10121800F04786468C460846089E15467446194689
:10122800002B40F0C1808542B2FA82F245D94AB11A
:10123800C2F1200300FA02FC954094402EFA03F311
:1012480043EA0C0C4FEA154EA8B2230CBCFBFEF87F
:101258000EFB18CC08FB00F943EA0C43994528D942
:10126800EB1808F1FF3704D2994502D9A8F1020713
:101278002B44A3EB0903A4B2B3FBFEFC0EFB1C3307
:101288000CFB00F044EA0344A04214D92C190CF1D9
:10129800FF3304D2A04202D9ACF102032C44241A31
:1012A80043EA07401EB1D440002334607360BDE8B0
:1012B800F0874746DDE76346F1E792BB431B012110
:1012C8004FEA154EAFB2200CB3FBFEFC0EFB1C33ED
:1012D8000CFB07F840EA0343984561D9EB180CF179
:1012E800FF3004D2984502D9ACF102002B44A3EB9D
:1012F8000803A4B2B3FBFEFC0EFB1C330CFB07F780
:1013080044EA0344A7424DD92C190CF1FF3304D207
:10131800A74202D9ACF102032C44E41B43EA004083
:10132800C0E7C2F120039540944020FA03F12EFA59
:1013380003F34FEA154E9040AFB20343B1FBFEFCF6
:101348000EFB1C10190C0CFB07F841EA00418845FC
:1013580022D969180CF1FF3004D2884502D9ACF1C2
:1013680002002944A1EB08019BB2B1FBFEFC0EFB75
:101378001C110CFB07F743EA01439F420ED9EB18F7
:101388000CF1FF3104D29F4202D9ACF102012B4487
:10139800DB1B41EA004193E76046E3E76146F7E774
:1013A8006046A4E76346B8E7834206D916B9002128
:1013B80008467CE7C6E900E0F9E7B3FA83F78FB996
:1013C800834201D3724508D8BEEB020460EB0303E5
:1013D80001209C461EB9002169E73846FAE7C6E9AC
:1013E800004CF8E7C7F1200CBB400EFA07F522FACB
:1013F8000CF42EFA0CF1BA401C4320FA0CF3B84056
:101408004FEA144901431FFA84FEB3FBF9F809FBBC
:1014180018300B0C08FB0EFA43EA00439A4540D9F2
:10142800E31808F1FF3004D29A4502D9A8F1020066
:101438002344A3EB0A0389B2B3FBF9F809FB183379
:1014480008FB0EFE41EA03418E452CD9611808F1CC
:10145800FF3304D28E4502D9A8F10203214443EA9E
:101468000040A1EB0E01A0FB02984145CE46434641
:1014780002D306D14D4504D20138B9EB020E68EB10
:101488000403002EA7D0B5EB0E0261EB030101FAAD
:101498000CFC22FA07F3F9404CEA0303C6E90031D1
:1014A80099E74046C5E74346D9E710F8012B11F8FC
:1014B800013B012A28BF9A42F7D0D01A7047034649
:1014C80011F8012B03F8012B002AF9D170470346C4
:1014D80013F8012B002AFBD1181A013870470000B5
:1014E800D0B504464068FEF785FF09A3D3E9002379
:1014F800FFF714F9064620680F46FEF77BFF024601
:101508000B4630463946FEF729FED0BDAFF30080C2
:101518000000000080842E4184B02DE9F04385B09E
:101528000CAC84E80F009DF890704DF084F84FF4EF
:101538007A76A0FB060506FB0155C40B012F44EA89
:1015480045444FEAD5354AD14DF075F841F2883512
:10155800A0FB060306FB0131674AC30B43EA41437C
:10156800D2E90040C90B1C1B61EB0000AC4270F1D2
:101578000000C0F2B580C2E900315DA3D3E90023C1
:10158800DDE90E01FEF7E8FD5C4ACDE90001142112
:101598005B4836F0B9FEDDE910015A4B0022FEF730
:1015A800DDFD594ACDE900011421584836F0ACFE5A
:1015B800574B1B68012B09D1564B514918684BF002
:1015C80052F9554B514918684BF04DF94F4A4C495F
:1015D800524805B0BDE8F04304B038F010BB022F04
:1015E80042D1DDE91C01FFF751FA0746DDE91A018E
:1015F800FFF74CFA0646DDE91801FFF747FA3B46C4
:101608000146324602A802F0BFF8029B444A142160
:10161800444836F079FE0398FEF7FEFE424ACDE9CB
:1016280000011421414836F06FFE414BD3E9001206
:10163800611A65EB0202B1F57A7F72F100024FDBA5
:10164800C3E90045324B1B68022B09D1394B354998
:1016580018684BF008F9384B344918684BF003F90F
:10166800324A30493548B4E7032F39D1DDE914232C
:10167800DDE9120100F0F8F88046894600F070F8BC
:10168800494606464046FFF7B9F914210346244A5D
:101698002B4836F039FE334614212A4A2A4836F0B8
:1016A80033FE2A4BD3E90012611A65EB0202B1F549
:1016B8007A7F72F1000213DBC3E90045144B1B6803
:1016C800032B09D1224B1E4918684BF0CCF8214B4B
:1016D8001D4918684BF0C7F81B4A19491E4878E796
:1016E80005B0BDE8F04304B0704700BFAFF3008019
:1016F800CDCCCCCCCCCC1C40600A0020DE3D050013
:101708007801032000002440E33D05006401032024
:10171800CC0100208CAB00207CAB0020EA3D05000A
:101728009EB40900280103200B3E05001401032084
:10173800580A002038AB00203CAB0020103E0500C2
:101748005001032006B009003C010320500A002084
:10175800F4AA0020E0AA0020353E050000000000A1
:1017680038B50022364B04460D46FFF71FF900280E
:101778003DD125A3D3E9002320462946FFF72AF9BE
:10178800A8BB23A3D3E9002320462946FFF70EF977
:1017980078BB21A3D3E9002320462946FFF706F9A1
:1017A80048BB1FA3D3E9002320462946FFF7FEF8CC
:1017B80018BB1DA3D3E9002320462946FFF7F6F8F6
:1017C800E8B91BA3D3E9002320462946FFF7EEF822
:1017D800B8B919A3D3E9002329462046FFF7E6F84C
:1017E8000146184B1848002918BF184638BD174835
:1017F800FCE71748FAE71748F8E71748F6E71748E5
:10180800F4E71748F2E700BF000000000018754031
:101818000000000000E050400000000000205C4094
:101828000000000000B06340000000000050694064
:101838000000000000F06E40000000000048724008
:10184800008036403D410500384105002F41050024
:1018580014410500194105001D41050034410500EA
:101868002541050000000000F8B514461D4620A3D8
:10187800D3E90023FEF772FC1FA3D3E90023064631
:1018880001F1004720462946FEF768FC32463B46F0
:1018980000F072FD1AA3D3E90023FEF715FE00221B
:1018A800002304460D46FFF781F838B12046294643
:1018B8000022154BFEF752FC04460D460022204636
:1018C8002946124BFEF74AFC00220F4B04460D46F0
:1018D800FFF780F838B12046294600220A4BFEF768
:1018E8003BFC04460D4620462946F8BDAFF3008070
:1018F8006BBC74931804D63F8E976E1283C0C23F98
:10190800F8C1631ADCA54C400080764000005940BD
:101918002DE9F04706460F46904688B04CF08BFEFE
:101928004FF47A73A0FB034503FB0155E40B012F29
:1019380044EA45444FEAD53507D122462B4630467E
:10194800274939F0F8F8002012E0D8F80470254843
:101958003946FFF7AAFD70B139462348FFF7A5FDC0
:1019680048B130463A46214939F001F96FF0040090
:1019780008B0BDE8F087204617A3D3E9002329461D
:10198800FFF7A8FB05460C4610461946184A0023DF
:10199800FFF7A0FB80460F46104619464EF6602218
:1019A8000023FFF797FB82468946104619464FF4F5
:1019B8007A720023FFF78EFBCDE902A9CDE9062351
:1019C800CDE904012A4623463046CDE90087094976
:1019D80039F0B1F8B7E700BF005C26050000000049
:1019E800B9AC0900CAAC0900CDAC0900D6AC0900F5
:1019F80080EE3600EEAC0900F0B587B0002140F665
:101A0800034005AA0CF096F80446002840F0AC8084
:101A18000598C3681B7853B9554BD3E8AF2F02F02C
:101A28000902D3E8EF1FC3E8E42F002CF9D10AF02C
:101A38009FFB002141F2030005AA0CF07BF8044645
:101A4800002840F09180059A4A4DD16805F1780345
:101A5800D1F80100D1F8051003C310460AF088FB3D
:101A6800214641F2010005AA0CF064F8044600285A
:101A78007AD10598C3685A7885F870205A88A5F8ED
:101A880072201A7985F87120B3F80720A5F8742018
:101A9800B3F80530A5F876300AF06AFB214641F222
:101AA800020005AA0CF046F8044600285CD1059F00
:101AB80005F18006FA68531C4132344618685968A3
:101AC800083303C493422646F7D138460AF050FB40
:101AD8000DF02EFA0446002846D195F88A309A0669
:101AE8000ED45721244838F014FE95F87C305B0654
:101AF80046D44521214838F00CFE6FF0120433E03B
:101B0800072140F633400BF055FC0646002800F04C
:101B1800458107210C300AF037FC45230370062362
:101B2800C0F802408471447004712246C370314683
:101B380040F633400BF0FEFF0446A8B9012140F6F9
:101B480031400BF037FC0646002800F027810121C0
:101B58000C303BF04DFC2246314640F631400BF04C
:101B6800E9FF04460028C0D0204607B0F0BD00BFFA
:101B7800D400002000000020ABCE0900DECE090012
:101B8800002142F2030005AA0BF0D4FF0446002806
:101B9800EAD1059BA84EDA68D2F80100D2F8051000
:101BA80003C618460AF0E4FA214642F2020005AAE2
:101BB8000BF0C0FF04460028D6D1059CE368B3F8B3
:101BC800012091B249B1D97839B1A5F80421DA7860
:101BD800114606F128004CF040FC20460AF0C8FAED
:101BE8001F2395F87C60A5F8203116F0200618D13F
:101BF800022140F66D400BF0DDFB0446002800F0A2
:101C0800CD8002210C300AF0BFFB0123214603706E
:101C18004670324640F66D400BF08CFF04460028B3
:101C2800A2D195F89C301F0712D5002142F21C0062
:101C380005AA0BF07FFF0446002895D10598C368D4
:101C4800D3F80120D3F80530C5E938230AF090FA13
:101C580095F8D8309E0625D50DF1120104A80CF090
:101C680041F8044600287FF47FAF042142F22400A3
:101C78000BF0A0FB0646002800F0908004210C30F1
:101C88000AF082FBBDF8103022460380BDF81230FE
:101C98003146438042F224000BF04CFF04460028F2
:101CA8007FF462AF95F8D8305C0610D5002142F277
:101CB8002A0005AA0BF03EFF044600287FF454AF23
:101CC8000598C3685B7885F822310AF051FA082133
:101CD80042F201000BF06EFB044600285ED008219A
:101CE8000C300AF051FB95F8D81040F2022311F09D
:101CF800400F08BF0323024688074CBF43F02C005F
:101D080043F00C0095F8D9308F0648BF40F04000EA
:101D180013F0090F95F8A23018BF40F4006003F0E3
:101D28000603CE0748BF40F01000062B08BF40F45A
:101D3800C07000213BF06BFC2146002242F20100FA
:101D48000BF0F8FE044600287FF40EAF95F87C30BF
:101D5800B5F80411980624D4C9B941F2050005AABA
:101D68000BF0E8FE044600287FF4FEAEB5F8043117
:101D7800059C4BB9E368B3F80120A5F804219A88BB
:101D88002E4811464CF069FB20460AF0F1F908216B
:101D980040F601400BF00EFB044658B96FF068049A
:101DA800E2E60029F3D14521254838F0B2FC6FF06E
:101DB8000404D9E608210C300AF0E6FA95F8D83080
:101DC8000246D9072DD44FF000511E483BF01FFCA6
:101DD8002146002240F601400BF0ACFE04460028E4
:101DE8007FF4C2AE014605AA4FF601400BF0A2FEF1
:101DF80070B35721144838F08CFC3BF0A9FD044619
:101E080000287FF4B1AE0EF0C7FA044600287FF42C
:101E1800ABAEEB79002B7BD149210C4838F079FC2B
:101E2800A2E603A1D1E90001D0E700BFAFF300802B
:101E38009088000200800020D800002008010020BF
:101E480007CF0900108800022FCF090021D0090010
:101E5800059E4921F4683248B4F80130032B96BF37
:101E6800304A314A52F8232038F053FCB4F80120A4
:101E7800B4F80330022A2AD1052B28D82B4A52F865
:101E8800232049212A4838F044FCD4F80910637902
:101E98000291B4F80710032B019198BF254AA17944
:101EA80094BF52F82320204A23480091492138F052
:101EB80030FC30460AF05CF900214FF6024005AAD2
:101EC8000BF038FE044620B157211C4893E7164A08
:101ED800D7E705981A4EC368B3F80130A6F8C130A1
:101EE8000AF046F996F8C1305B0786D521464FF6C9
:101EF800034005AA0BF01EFE10B1572111487AE7DE
:101F08000598C3685B7886F8C0300AF031F974E741
:101F180008210D483BF068FB0BF0BEFB24E600BF30
:101F280058CF09004C17050071CC0900341705007B
:101F380076CF09002417050093CF0900C5CF090003
:101F480000000020F3CF0900D400002000000000AA
:101F5800032938B5044637D852B3072A2DD15A6811
:101F68001D6813461E48D117C5FB0031012B71F1BE
:101F7800000215DB00F56E1000F65D70181841F1CF
:101F8800000115A3D3E90023FFF7A4F8B0FA80F104
:101F9800C1F11E012046BDE83840C9B23DF005BE7A
:101FA8001048181861F100010BA3D3E90023EBE7EF
:101FB8001988BDE8384015F0AFBB44210A4838F00D
:101FC800A8FB6FF0850038BD0A460848442138F060
:101FD800A0FBF6E7AFF300803AA3950000000000ED
:101FE80040420F00632EB5FFBEF80900DFF8090074
:101FF80070B514460646CD17A1FB0201002304FB69
:1020080005110A22FFF766F80FA3D3E900230C4D48
:1020180080FB054520462946FFF75CF806A3D3E96F
:102028000023306029462046FFF754F80023054A6C
:10203800FFF750F8726070BD80A812010000000020
:10204800D8EF2F0040420F0000209BF35E100000E5
:1020580003292DE9F04105460C4605D0072900F073
:102068008480572170487BE0002A5BD0072A75D10D
:1020780058681A686D4BC117C2FB0301012871F13A
:10208800000364DBD5F80480694B98F81A60C0181F
:102098004FEAD61660A3D3E9002341F1000176B2D6
:1020A800FFF718F8002E14BF04230223984298F96A
:1020B8001A7025D0002E14BF20231023984221D057
:1020C800002E14BF0823042398421DD0002E14BFED
:1020D8001023082398423AD1E6B2314640462D698A
:1020E8003AF018F8002811DB524B002F4FF03D0250
:1020F80033F81430AE7710DBA3FB02325B080DE037
:102108000024E9E70124E7E70224E5E744214A48F7
:1021180038F0FFFA6FF0040002E05343EB60002050
:10212800BDE8F0811988454B14461F4633F8022B49
:10213800914209D86868E1B22E693AF076F9002828
:1021480008DA44213E48E3E701340B2CEED16FF066
:102158001500E5E737F81430B383E0E74421394840
:1021680038F0D7FA6FF08500DAE7002A3DD0072A61
:102178004ED1B4245A6819682C4BD017C1FB0320E0
:10218800A2FB0431012A04FB001170F1000018DBE6
:102198002D48181841F1000121A3D3E90023002498
:1021A800FEF798FF294B33F8022B904211D168684B
:1021B800E1B22E6939F0C5FF00280EDA442124481F
:1021C800A6E72448181861F1000115A3D3E90023F4
:1021D800E5E70134072CE6D1B9E741F217121E4BA7
:1021E80033F814305343B36199E71988134B33F824
:1021F800020B814208D86868D1B23AF084F9002805
:102208008DDA4421154883E701320B2AEFD19EE786
:1022180044211348A4E700BF3AA39500000000003A
:10222800D8EF2F000000000047FF090040420F00D0
:102238009DD14A000039050051020A0008390500FD
:102248007D020A00AC020A00ECF71700F23805001C
:10225800D0020A001408E8FFE4380500F8020A0072
:1022680023030A00000000002DE9F74F0329144654
:10227800066905D90B1F032B53D96FF0850023E09E
:102288000229F7683A4D22D0032923D0012914BF27
:10229800B6F90460B6F90660A6FB076732A3D3E96E
:1022A800002386FB056530462946FEF713FF002309
:1022B800304A206029463046FEF70CFF00232D4A9D
:1022C800FEF708FF6260002003B0BDE8F08FB6F9A2
:1022D8000860E1E74FF0000B02F11803DFF894A063
:1022E8000236019336F9028FA8FB07831EA3D3E9B0
:1022F800002388FB059848464146FEF7EBFE524608
:1023080044F8080B5B4648464146FEF7E3FE524652
:102318005B46FEF7DFFE019B44F8042C9C42E1D1AA
:10232800D1E70629B5690CD007290ED02A46052918
:1023380014BFB6F91010B6F912102046FFF758FE70
:10234800C1E72A46B6F91410F7E70E3602F1180766
:1023580020462A4636F9021F0834FFF749FEA742ED
:10236800F6D1B0E7AFF300800010A5D4E800000074
:102378003AA3950040420F002DE9F84F17469046C2
:10238800994623F000427B42DFF8E4A104460D465B
:102398003B4342EAD373534509D8464221F00043F0
:1023A8008E468346064343EAD676564508D94246C2
:1023B8004B4620462946FDF7D1FE04460D4616E059
:1023C80009F1404606F580163E4303D1BDE8F84FB3
:1023D80000F0D2B84FEAA97653EA0B0B06F00206D2
:1023E80046EAD17617D1022E05D0032E0AD0204610
:1023F8002946BDE8F88F48A3D3E9002348A1D1E9CD
:102408000001D8E744A3D3E9002347A1D1E900019B
:10241800FDF7A2FED1E717430DD1BEF1000F3EA391
:10242800D3E9002303DA42A1D1E90001F0E742A190
:10243800D1E90001BFE7524524D1934218D1022EB9
:1024480035A3D3E900230BD0032E0DD0012E03D0E2
:102458003BA1D1E90001AEE73BA1D1E90001D7E7F3
:102468003BA1D1E90001A6E73BA1D1E90001CFE7F3
:10247800022EC0D0032EC5D0012E4FF0000448D044
:102488000025B4E75345C8D09B1AB3F1747F4FEACF
:1024980023521ADB32A3D3E9002327A1D1E9000193
:1024A800FDF75CFE04460D46012E21D0022E23D0F6
:1024B800002E9CD0204629462BA3D3E90023FDF704
:1024C8004BFE17A3D3E90023A2E7B9F1000F01DA05
:1024D8003C320ADB42464B4620462946FEF71EF9A7
:1024E80021F0004100F048F8DCE700240025DBE794
:1024F80005F100431D467AE71BA3D3E900232046D4
:102508002946FDF729FE02460B4605A1D1E900013F
:102518007EE74FF000456AE759F3F8C21F6EA50140
:10252800182D4454FB210940182D4454FB2109C09F
:10253800182D4454FB21F9BF182D4454FB21F93FB1
:10254800182D4454FB21E93F182D4454FB21E9BFC1
:10255800D221337F7CD90240D221337F7CD902C07B
:10256800075C143326A6913C075C143326A6A13CCD
:102578000000F07F000000002DE9F84FC04A21F06C
:10258800004304460D4693428B4620D9BD4A9342E8
:1025980001D80CD158B122462B4620462946FDF7D2
:1025A800DDFD04460D4620462946BDE8F88FBBF1FF
:1025B800000F95A3D3E9002303DD95A1D1E900011C
:1025C800EDE795A1D1E90001FDF7C6FDE9E7AE4ABF
:1025D800934211D8A2F1DE7293420AD890A3D3E9AC
:1025E8000023FDF7BBFD0022A84BFEF7FDF90028EC
:1025F800D9D14FF0FF3A27E0A54A064621F0004717
:10260800934200F2B880A2F55022934200F29B80D8
:1026180002463B4639464FF0000AFDF79FFD00226F
:102628009A4BFDF799FD04460D4600224FF0804372
:1026380030463946FDF792FD02460B4620462946AC
:10264800FEF76CF804460D4622462B4620462946DE
:10265800FDF73AFF02460B4680468946FDF734FFF0
:1026680006460F4670A3D3E90023FDF72DFF70A39C
:10267800D3E90023FDF772FD32463B46FDF724FF00
:102688006DA3D3E90023FDF769FD32463B46FDF70C
:102698001BFF6BA3D3E90023FDF760FD32463B46E1
:1026A800FDF712FF68A3D3E90023FDF757FD324673
:1026B8003B46FDF709FF66A3D3E90023FDF74EFD6E
:1026C80042464B46FDF700FF80468946304639466C
:1026D80061A3D3E90023FDF7F7FE61A3D3E9002343
:1026E800FDF73AFD32463B46FDF7EEFE5EA3D3E921
:1026F8000023FDF731FD32463B46FDF7E5FE5CA3BE
:10270800D3E90023FDF728FD32463B46FDF7DCFE02
:1027180059A3D3E90023FDF71FFD32463B46FDF7D9
:10272800D3FE02460B4640464946FDF717FD2246B2
:102738002B46FDF7C9FEBAF1FF3F02460B4644D1CE
:102748002046294640E70022504B39464FF0010AFF
:10275800FDF702FD04460D4600224C4B3046394633
:10276800FDF7FCFC02460B4620462946FDF7D6FF3E
:1027780004460D4668E7474A93421BD20022464B5F
:1027880039464FF0020AFDF7E7FC002204460D46E1
:10279800414B30463946FDF797FE00223B4BFDF78B
:1027A800DDFC02460B4620462946FDF7B7FF0446E6
:1027B8000D4649E702463B4600203849FDF7AEFF83
:1027C8004FF0030A04460D463EE7354B354E03EB02
:1027D800CA0306EBCA06D3E90023FDF7BDFC22466F
:1027E8002B46FDF7B9FC02460B46D6E90001FDF77A
:1027F800B3FCBBF1000F04460D46BFBF024601F112
:10280800004314461D46CEE6075C143326A6913CC9
:10281800182D4454FB21F93F182D4454FB21F9BFCE
:102828009C7500883CE4377E11DA22E33AAD903F8C
:10283800EB0D76244B7BA93F513DD0A0660DB13FEF
:102848006E204CC5CD45B73FFF8300922449C23F57
:102858000D5555555555D53F2F6C6A2C44B4A2BF1C
:102868009AFDDE522DDEAD3F6D9A74AFF2B0B33FE4
:10287800711623FEC671BC3FC4EB98999999C93F5C
:10288800FFFF0F440000F07FFFFFDB3F0000F03F39
:10289800FFFFF23F008003400000F83F0000F0BF58
:1028A80028FB040048FB04001FB506240294044CCE
:1028B8000194BDF8184000943CF0C6F804B010BD6F
:1028C800B00003201FB502240294044C0194BDF803
:1028D800184000943CF0B8F804B010BDB6000320CE
:1028E8001FB502240294044C0194BDF818400094CA
:1028F8003CF0AAF804B010BDB8000320044A054B08
:102908000548012914BF1146194637F078B900BFA8
:10291800F43B0500F73B0500003C0500044A054B65
:102928000548012914BF1146194637F068B900BF98
:10293800F43B0500F73B05001B3C0500014837F058
:102948005EB900BF393C050011B1034837F057B9EB
:10295800024837F054B900BF553C0500763C0500E5
:1029680030B5002091B00BF001FA014628B11D489E
:1029780011B0BDE8304037F042B937F0FAFE40F206
:102988000113ADF81C3006238DF80C3003AB089307
:1029980040F60913ADF82430134B144C0A9340F257
:1029A8000323ADF8143034F8043B0BADADF8103008
:1029B80004AB06930FCC0FC5236807A92B6001232E
:1029C800022200930BA805AB0CF07AF9014620B15E
:1029D800074837F014F911B030BD064837F00FF941
:1029E800F9E700BF803C0500A03C050030F7040073
:1029F800AA3C0500D63C050007B5064BADF8040017
:102A080018800222044801A936F0DBFE03B05DF805
:102A180004FB00BFB800032090FB040007B5064B79
:102A2800ADF8040018800222044801A936F0C9FE56
:102A380003B05DF804FB00BFB6000320CCFB040024
:102A4800044B188059809A8019460622024836F0AD
:102A5800B8BE00BFB000032008FC0400F7B53C2650
:102A68001D4B04211C681D4D01341C6094FBF6F3BA
:102A78002A4606FB13430DEB010035F045FC184BC5
:102A880001A9186849F0EFFE4FF4616394FBF3F76E
:102A9800042103FB17432A4693FBF6F30DEB0100D1
:102AA80035F032FC0F4B01A9186849F0DCFE04210F
:102AB8002A463B460DEB010035F026FC0A4B01A9DE
:102AC800186849F0D0FE4FF400420023074833F05D
:102AD800E5F803B0F0BD00BF70A80020983D0500E0
:102AE8007CA8002078A8002074A80020200A0020D4
:102AF800064B1860064B07481960074B07491A60D0
:102B08000022074B1A6033F041B800BF7CA80020B0
:102B180078A80020200A002074A80020652A000058
:102B280070A800204FF400420023014833F0B6B8E3
:102B3800200A0020014833F01DB900BF200A0020F8
:102B480010B5FFF7F7FF0022094B0A4C1A600A4B31
:102B58002146186849F087FE084B2146186849F055
:102B680082FE074B2146BDE81040186849F07BBE3D
:102B780070A80020ACED09007CA8002078A80020EF
:102B880074A800202DE9F0419AB0FFF7E9FE00246F
:102B9800DFF89C80274D4FF0FF324FF0FF33694636
:102BA800404632F087F8D0B99DF86030012B1CD12F
:102BB800DDE9040122462B46FDF786FCFDF746FFBA
:102BC80022462B4686B2DDE90201FDF77DFCFDF7C2
:102BD80015FF00B2FFF710FF3046FFF71FFF4FF455
:102BE8008030002136F008FED5E7032BF7D1DDE968
:102BF8000A0122462B46FDF767FCFDF7FFFE224639
:102C08002B4607B2DDE90801FDF75EFCFDF7F6FE8D
:102C180022462B4606B2DDE90601FDF755FCFDF715
:102C2800EDFE3A46314600B2FFF70AFFD7E700BF8C
:102C380080A800200000594037B5C388002B48D130
:102C48008268444B1A600379002B00F08180424966
:102C5800424C09683F4B002914BF01210021404A1A
:102C68001B68126821723F49236062603E480092E7
:102C78003E4A08BF0A46492137F04BFD237A002B0C
:102C880052D04BF0D8FC4FF47A72A0FB020302FB3F
:102C98000131C30B364A43EA4143D2E90050C90B1C
:102CA8005D1B61EB0000B5F5FA7F70F100003BDBBE
:102CB800304DC2E900312B68012B15D16368772BA1
:102CC8002CD9782B30D02C4B18683DF015FE0523F5
:102CD80029E0012B02D18268214BB3E7B3F5A57F28
:102CE800B1D182681C4BADE7022B0AD16368772B00
:102CF80028D9782B18D0214B18683DF0FDFD012309
:102D080011E0032B16D16368772B05D81C4B186884
:102D18003DF0F2FD042306E0782B05D0194B186826
:102D28003DF0EAFD02232B60174803B0BDE83040B0
:102D380032F06CBA042BF7D16368782BF4D9236886
:102D48009F2BF1D8114B18683DF0D6FD0323EAE715
:102D580003B030BDC8010020C001002004A9002034
:102D6800C4010020F53C0500FD3C0500EF3C0500D2
:102D7800480D0020CC010020BCAA002094AB002004
:102D8800BCA9002044AB0020ECA80020FCAA00202D
:102D9800F0B5B1B06822002116A84BF044FF484CAA
:102DA800484D494F206836F020FD002822DB6A464E
:102DB80020680D2136F01DFD02AA2068102136F08A
:102DC80018FD6846FEF78CFBCDE9180102A8FEF74E
:102DD80087FB0123CDE91A018DF8B83000220023C2
:102DE800284616A931F0CAFE00220023384616A943
:102DF80031F0C4FE354E306836F0F7FC002830D18B
:102E0800306804AA032136F0F4FC0AAA30680721C6
:102E180036F0EFFC04A8FEF763FBCDE9220106A813
:102E2800FEF75EFBCDE9240108A8FEF759FBCDE9C2
:102E380026010AA8FEF754FBCDE928010CA8FEF7E5
:102E48004FFBCDE92A010EA8FEF74AFB0223CDE984
:102E58002C018DF8B83000220023284616A931F03D
:102E68008DFE1B4E306836F0C0FC10BB10AA3068CF
:102E78000B2136F0BEFC10A8FEF732FBCDE91C0191
:102E880012A8FEF72DFBCDE91E0114A8FEF728FBBA
:102E98000323CDE920018DF8B8300022002328460D
:102EA80016A931F06BFE00220023384616A931F02E
:102EB80065FE41F69A10002136F09EFC72E700BFCD
:102EC80038FC0400B4A8002080A8002030FC0400CE
:102ED80034FC040010B58AB0114C20464BF00FFAB0
:102EE80028B910480AB0BDE8104036F088BE28223C
:102EF800002168464BF097FE1E220C23CDE90123E2
:102F08000323CDE903337D230593A368694620464F
:102F18001B68984710B9044836F071FE0AB010BD16
:102F2800D8EF04001A3D05002A3D0500F0B541F62A
:102F38009A1095B0002136F05FFCFFF7CBFF00F048
:102F48001BFA2F484BF0DBF9002843D02C4B2D4DB2
:102F58009C682B4863680AA9984700284BD10B9BAB
:102F68001021294A009302A80C9B35F0CDF9642260
:102F78000F9B06A803F26C7393FBF2F102FB11336B
:102F880001930E9B102101330093204A0D9B35F0CD
:102F9800BBF91F4B1F4F1B681F4E012B20D13868F0
:102FA80002A949F060FC306806A949F05CFC386861
:102FB80002A949F058FC306806A949F054FC1748A2
:102FC80006AA02A936F01BFE4FF40040002136F095
:102FD80013FCBEE7124815B0BDE8F04036F00FBE4E
:102FE800022B03D10F4B02A91868DEE7032BDED1B1
:102FF8000D4B02A9F8E7284636F001FEE4E700BFCA
:10300800D8EF0400C73D0500843D05008E3D05004E
:10301800CC01002084AB002080AB00209D3D050042
:10302800533D050020AB0020DCAA0020F0B50F4E70
:103038000F4D104FB1B016AC4FF0FF324FF0FF33C9
:103048002146304631F036FE60B9384636F0D7FDB5
:103058001AA9582268464BF0BFFD94E80F00FEF706
:103068005BFAE8E7284636F0CAFDE4E7B4A8002092
:103078007F3E05005D3E0500F0B589B001220021C4
:103088004B484BF0EAF900F0C9FA4A4B1B68002B91
:1030980040F08680484836F0B2FD484D48482860E0
:1030A8004BF02DF9044600287CD003F00BF8286873
:1030B80083685B6803B19847002030F077FB0026EF
:1030C800002700244FF400623E4B3F49CDE90667D4
:1030D800CDE90344CDE9014400943C4833F00AF8B3
:1030E8003B4836F08CFD324832F090F80A236822CB
:1030F800384939484BF05CF90A236822374938487F
:103108004BF056F9374836F07AFD052501234FF480
:10311800806235490093CDE90667344BCDE9024515
:1031280004940194324832F0E5FF324836F067FDE6
:103138004FF48062304B3149CDE90667CDE903543D
:10314800CDE9014400942E4832F0D4FF2D4836F0E2
:1031580056FD03234FF48062CDE90243CDE90667AB
:10316800CDE90044284B29490494294832F0C2FF8C
:103178000423CDE90044CDE9024304944FF480626E
:10318800CDE90667234B2449244832F0B3FF084CA5
:103198004FF0FF324FF0FF33204632F071F8F7E777
:1031A8001F4878E71F4836F02AFD204609B0F0BDD1
:1031B800ECA8002038FC0400B83E0500E8A8002070
:1031C80014F0040005980300181C0320500D00207B
:1031D800203F05009C050320B4A800208C01032093
:1031E80080A80020363F050018180320992D0000FC
:1031F800900C0020553F05003530000018140320BE
:10320800D80B00206B3F0500352F00001810032055
:10321800200B00208D2B0000180C0320680A0020CA
:10322800D63E0500FF3E050013B5134B134C08218D
:10323800224668461B6835F067F8114B69461868DE
:1032480049F011FB0F4B2246082168461B6835F0F0
:103258005BF80D4B6946186849F005FB0B4B224695
:10326800082168461B6835F04FF8094B694618680D
:1032780049F0F9FA02B010BD18A90020983D0500E0
:10328800B4AA002014A90020ACAA002010A900208C
:10329800A8AA002013B5164B164C082122466846EA
:1032A8001B6835F031F8144B6946186849F0DBFAA9
:1032B800124B2246082168461B6835F025F8104B4A
:1032C8006946186849F0CFFA64220E4B68461B68B5
:1032D80093FBF2F102FB11332246082135F014F872
:1032E800094B6946186849F0BEFA02B010BD00BF24
:1032F800D8010020983D0500A0AA0020D401002094
:1033080098AA0020D001002090AA002010B58AB009
:10331800124C20464AF0F3FFF0B11022002106A813
:103328004BF081FC0E4B1B6800930E4B1B680193FE
:103338000D4B1B6802930D4B1B6803930C4B1B68CA
:10334800013B04930B4B1B68A3F26C730593A368B2
:10335800694620461B6898470AB010BDD8EF04009C
:1033680010A9002014A9002018A90020D8010020C5
:10337800D4010020D001002010B58AB0124C20469C
:103388004AF0BDFFF0B1A368694620465B689847DC
:10339800C0B90E4B029A1A600D4B019A1A600D4B78
:1033A800009A1A600C4B039A1A60049B0B4A01336B
:1033B8001360059B0A4A03F26C731360FFF734FF2E
:1033C800FFF768FF0AB010BDD8EF040018A9002065
:1033D80014A9002010A90020D8010020D401002041
:1033E800D0010020182108B5064A1368013393FB61
:1033F800F1F001FB10331360FFF716FFBDE808403A
:10340800FFF784BF18A90020182108B5064A1368D9
:10341800173393FBF1F001FB10331360FFF704FF40
:10342800BDE80840FFF772BF18A900203C2108B585
:10343800064A1368013393FBF1F001FB1033136064
:10344800FFF7F2FEBDE80840FFF760BF14A90020AF
:103458003C2108B5064A13683B3393FBF1F001FBA6
:1034680010331360FFF7E0FEBDE80840FFF74EBFDA
:1034780014A900203C2108B5064A1368013393FBC0
:10348800F1F001FB10331360FFF7CEFEBDE80840F2
:10349800FFF73CBF10A900203C2108B5064A136875
:1034A8003B3393FBF1F001FB10331360FFF7BCFED5
:1034B800BDE80840FFF72ABF10A900201F2208B561
:1034C80007490B6893FBF2F2C2EB42129B1A0133D5
:1034D8000B60FFF7DFFEBDE80840FFF717BF00BF2E
:1034E800D80100201F2208B507490B681D3393FB3C
:1034F800F2F2C2EB42129B1A01330B60FFF7CAFECD
:10350800BDE80840FFF702BFD80100200C2108B52C
:10351800064A136893FBF1F001FB10330133136083
:10352800FFF7B8FEBDE80840FFF7F0BED401002061
:103538000C2108B5074A13680A3393FBF1F001FB25
:10354800103301331360FFF7A5FEBDE80840FFF70D
:10355800DDBE00BFD401002008B5054A1368013359
:103568001360FFF797FEBDE80840FFF7CFBE00BF26
:10357800D001002008B5074A1368B3F5FA6FC4BF35
:1035880003F1FF331360FFF785FEBDE80840FFF73E
:10359800BDBE00BFD001002008B5044B18683DF03F
:1035A800ABF90122024B1A6008BD00BF94AB0020A2
:1035B800CC01002010B4034605480A4681688C688F
:1035C8001CB11946234610BC184710BC704700BFF1
:1035D800A0F0040008B50C2136F024F9024A13685B
:1035E8000133136008BD00BF28A9002008B50721D2
:1035F80036F018F9024A13680133136008BD00BF9A
:103608002CA9002008B5032136F00CF9024A1368EA
:103618000133136008BD00BF30A9002030B543480E
:1036280087B036F0ECFA424C20464AF068FE30B9D2
:103638002168404807B0BDE8304036F0E0BA3E485F
:1036480036F0DDFA3D4C20464AF059FE0028EFD00E
:103658003B4836F0D4FA3B4D28464AF050FE08B9AC
:103668002968E6E7384836F0CAFA642300223C2184
:10367800CDE90432204604AB36F0C9F8002802DA56
:10368800324836F0BCFA0024D025314836F0B7FA73
:10369800224603212B4802ABCDE9025436F0B7F895
:1036A800A04208DA2B4836F0AAFA2B4807B0BDE842
:1036B800304036F0A4BA9C21284B0722CDE90413E8
:1036C8002048032104AB36F0A2F8002801DA244888
:1036D800E9E7224607211B4802ABCDE9025436F040
:1036E80096F8002801DA1F48DDE704221E4B15482A
:1036F800CDE90423072204AB114636F088F80028E8
:1037080001DA1A48CFE71A4B01A81A490193FFF7C3
:1037180051FF194B01A819490193FFF74BFF184BAB
:10372800184901A80193FFF745FFBEE7933F05003D
:1037380050F00400AA3F0500C13F050078F00400DE
:10374800D93F0500A0F00400F13F05000F40050037
:103758003A40050058400500FA400500A0D40D0085
:1037680089400500AA4005003A8B0500DA400500AB
:10377800010003000D36000001000700F5350000C8
:1037880001000C00DD3500002DE9F74F05460E4617
:10379800914698464AF04FFF04460F463046314658
:1037A800FDF7D2FA494606464846FDF7CDFA0146E6
:1037B8003046FDF7C1F9414606464046FDF7C4FAD2
:1037C80001463046FDF7B8F94BF0B3F9DFF8BCA075
:1037D80006469AF80030DFF8B8B0DFF8B890DFF89E
:1037E800B880002B49D02D49DBF80000FDF74AFCD2
:1037F800002836D030462949FDF758FC88B34FF4E5
:103808007A72A4FB024302FB073340F25927244A89
:10381800E40B44EA4344D2E90001DB0B201A63EBD2
:103828000101B84271F100011BDBD8F800701D4995
:103838000137D9F80000C8F800700193FDF77CF94A
:10384800174A019B146053600023C9F800008AF8E6
:103858000030FCF7E1FD02460B461348394636F0C6
:10386800CEF92846D9F80030D8F80020CBF8006007
:103878002A606B6003B0BDE8F08F0C49FDF702FCCD
:103888000028EED001238AF80030EAE7B8060020C5
:1038980024A900201CA9002020A9002000004841DC
:1038A800080E00203333333F4341050033332341AF
:1038B8002DE9F74F00201BF065F8DE4C1021206041
:1038C8003DF035FD20681BF05DF8DFF86C93F021C2
:1038D800C9F800003EF04CFCD9F80000F0213EF099
:1038E8005EFCD9F8000000213EF009FCD9F8000080
:1038F8004FF0FF313EF01AFCD9F8000009213EF0E4
:1039080093FCD9F8000010213DF011FDD9F8000012
:10391800002242F2107140F016FAD9F80000002295
:10392800C64940F0DEF90022FF21D9F8000040F036
:10393800DDF920682DF046F94FF0FF3ADFF80083F3
:1039480042F2D171C8F800003EF012FCD8F800002D
:1039580042F2D1713EF023FCD8F800006FF0090163
:103968003EF0CDFBD8F800006FF05E013EF0DEFBC4
:10397800D8F8000009213EF057FCD8F80000B149FA
:1039880048F071FFDFF8C0B25146D8F800000022B5
:1039980040F0C5F9D8F800000022FF2140F0C4F932
:1039A80000225946D8F8000040F0C3F920682DF0ED
:1039B80009F9A64F42F2D17138603EF0D9FB386858
:1039C80042F2D1713EF0EBFB386814213EF097FBD0
:1039D80038686FF05E013EF0A9FB386809213EF0B7
:1039E80023FC38689A4948F03EFF5146386800225F
:1039F80040F095F938680022FF2140F095F900223F
:103A08009449386840F095F920682DF0DBF8924E1B
:103A180042F2D17130603EF0ABFB306842F2D171B6
:103A28003EF0BDFB306800213EF069FB30686FF066
:103A380016013EF07BFB306809213EF0F5FB30684B
:103A4800864948F010FF51463068002240F067F977
:103A580030680022FF2140F067F900228049306871
:103A680040F067F920682DF0ADF87E4D42F2D17133
:103A780028603EF07DFB286842F2D1713EF08FFB52
:103A8800286800213EF03BFB286817213EF04EFBDA
:103A9800286809213EF0C8FB2868734948F0E3FE0E
:103AA80051462868002240F03AF928680022FF2190
:103AB80040F03AF900225946286840F03AF920685F
:103AC8002DF080F8694B42F2D17118603EF050FB3E
:103AD800664B42F2D17118683EF061FB634B0021DE
:103AE80018683EF00CFB614B402118683EF01EFB45
:103AF8005E4B092118683EF097FB5C4B5C491868DF
:103B080048F0B1FE594B51469A461868002240F0D9
:103B180006F9DAF800000022FF2140F005F900223A
:103B28005946DAF8000040F004F920681AF02AFF34
:103B3800DFF840B10A21CBF800003EF019FBDBF8B2
:103B480000000A213EF02BFBDBF800006FF02C018F
:103B58003EF0D5FADBF800005A213EF0E7FADBF830
:103B6800000009213EF060FB1021DBF800003DF069
:103B7800DEFB20681AF006FFDFF8FCA00A21CAF86D
:103B880000003EF0F5FADAF800000A213EF007FBE3
:103B9800DAF800006FF00E013EF0B1FADAF8000032
:103BA8005A213EF0C3FADAF8000009213EF03CFB46
:103BB800DAF8000010213DF0BAFBDAF80000002224
:103BC8001E4940F08EF80022FF21DAF8000040F08C
:103BD8008DF820681AF0D6FEDFF8A0A00A21CAF8EE
:103BE80000003EF0C5FADAF800000A213EF0D7FAE4
:103BF800DAF800000F213EF082FADAF800005A21C4
:103C08003EF094FADAF8000009213EF00DFBDAF8EC
:103C1800000010213DF08BFBDAF800000022074974
:103C280040F05FF80022FF21DAF8000040F05EF86B
:103C380026E000BF94AB002090AB00201E1E1EFFA4
:103C48008CAB0020D8A6090090FF040088AB0020A8
:103C5800DBA60900A42B050084AB0020DFA6090021
:103C6800E00C050080AB0020E5A609007CAB002035
:103C7800EEA6090078AB002074AB002070AB0020E2
:103C8800206826F0B5FE0022DFF8F0A01146CAF839
:103C980000003B4B009245F01BFC00220092384B81
:103CA800DAF80000012145F013FCDAF800001E21C3
:103CB8003EF05EFADAF800001E213EF070FADAF8FB
:103CC80000006FF03B013EF01AFADAF80000182104
:103CD8003EF02CFA0921DAF800003EF0A5FA206837
:103CE8001AF050FEDFF89CA00A21CAF800003EF046
:103CF8003FFADAF800000A213EF051FADAF800003B
:103D08002D213EF0FCF9DAF800005A213EF00EFAB7
:103D1800DAF8000009213EF087FADAF800001021ED
:103D28003DF005FBDAF80000002217493FF0D9FF03
:103D38000022FF21DAF800003FF0D8FF2268134B79
:103D48001A60D9F80020124B1A60D8F80020114BDD
:103D58001A603A68104B1A603268104B1A602A6869
:103D68000F4B1A600F4B1A680F4B1A60DBF80020D4
:103D78000E4B1A6003B0BDE8F08F00BF6CAB00209B
:103D88004010050068AB00201E1E1EFF64AB00201B
:103D980060AB00205CAB002058AB002054AB002087
:103DA80050AB00207CAB00204CAB002048AB00207F
:103DB8002DE9F84F00201AF0E5FDDA4C10212060BB
:103DC8003DF0B5FA20681AF0DDFDD74DF0212860E6
:103DD8003EF0CEF92868F0213EF0E1F92868092183
:103DE8003EF022FA286810213DF0A1FA2868002246
:103DF80042F210713FF0A7FF28680022CB493FF03C
:103E080070FF0022FF2128683FF070FF20682CF027
:103E1800D9FEDFF81C8342F2D171C8F800003EF0E9
:103E2800A7F942F2D171D8F800003EF0B8F96FF066
:103E38001B01D8F800003EF062F96FF02001D8F8B5
:103E480000003EF073F90921D8F800003EF0ECF9C3
:103E5800B849D8F8000048F006FDB74D00224FF0E9
:103E6800FF31D8F800003FF05AFF0022FF21D8F8B0
:103E780000003FF059FF00222946D8F800003FF023
:103E880058FF20682CF09EFEAC4F42F2D17138608A
:103E98003EF06EF942F2D17138683EF080F96FF069
:103EA8001D0138683EF02BF91C2138683EF03EF9B8
:103EB800092138683EF0B8F9A149386848F0D3FCC0
:103EC80000224FF0FF3138683FF029FF0022FF2120
:103ED80038683FF029FF0022294638683FF029FF5B
:103EE80020681AF04FFD974B0A211D4618603EF0D6
:103EF8003FF928680A213EF052F928686FF00E0150
:103F08003EF0FDF828685A213EF010F9286809218A
:103F18003EF08AF9102128683DF009FA20681AF065
:103F280031FDDFF824A20A21CAF800003EF020F98A
:103F38000A21DAF800003EF032F96FF02C01DAF8C5
:103F480000003EF0DCF85A21DAF800003EF0EEF806
:103F58000921DAF800003EF067F91021DAF80000CC
:103F68003DF0E5F900227149DAF800003FF0B9FEAA
:103F78000022FF21DAF800003FF0B8FE20681AF0AE
:103F880001FDDFF8C8910A21C9F800003EF0F0F8F9
:103F98000A21D9F800003EF002F90F21D9F80000F3
:103FA8003EF0ADF85A21D9F800003EF0BFF80921DB
:103FB800D9F800003EF038F91021D9F800003DF09A
:103FC800B6F900225949D9F800003FF08AFE0022CC
:103FD800FF21D9F800003FF089FE20682CF0F2FD9F
:103FE8005B4E42F2D17130603EF0C2F842F2D171BC
:103FF80030683EF0D4F8312130683EF080F86FF038
:104008001B0130683EF092F8092130683EF00CF947
:104018005049306848F027FC00224FF0FF313068E3
:104028003FF07DFE0022FF2130683FF07DFE002238
:10403800494930683FF07DFE20682CF0C3FD474DAC
:1040480042F2D17128603EF093F842F2D1712868AB
:104058003EF0A5F8362128683EF051F8212128685D
:104068003EF064F8092128683EF0DEF83C492868EB
:1040780048F0F9FB00224FF0FF3128683FF04FFE6F
:104088000022FF2128683FF04FFE002232492868AD
:104098003FF04FFE20682CF095FDDFF8C8B042F2E3
:1040A800D171CBF800003EF063F842F2D171DBF831
:1040B80000003EF074F80021DBF800003EF01FF825
:1040C8006FF06301DBF800003EF030F80921DBF8FF
:1040D80000003EF0A9F82449DBF8000048F0C3FBD3
:1040E80000224FF0FF31DBF800003FF018FE0022FD
:1040F800FF21DBF800003FF017FE00221649DBF82D
:1041080000003FF016FE20681AF03CFC174C0A210C
:1041180020603EF02DF80A2120683EF040F82D215D
:1041280026E000BF44AB002040AB00201E1E1EFF4F
:104138003CAB00200A780A008C09050038AB002047
:10414800F2A6090034AB002030AB00202CAB0020D5
:1041580028AB0020C3ED090090FF040024AB002029
:10416800F6A6090020AB0020DFA609001CAB002042
:1041780020683DF0C4FF5A2120683DF0D7FF09218F
:1041880020683EF051F8102120683DF0D0F8002258
:10419800114920683FF0A5FD0022FF2120683FF06B
:1041A800A5FDD8F800200D4B1A603A680C4B1A6030
:1041B8000C4B1A680C4B1A60DAF800200B4B1A608B
:1041C800D9F800200A4B1A6032680A4B1A602A682C
:1041D800094B1A60BDE8F88F1E1E1EFF18AB0020A1
:1041E80014AB002034AB002010AB00200CAB002037
:1041F80008AB002004AB002000AB00202DE9F84FED
:1042080000201AF0BFFBD24E102130603DF08FF82D
:1042180030681AF0B7FBCF4CF02120603DF0A8FFC2
:104228002068F0213DF0BBFF206809213DF0FCFF2C
:10423800206810213DF07BF82068002242F21071BE
:104248003FF081FD20680022C3493FF04AFD00226B
:10425800FF2120683FF04AFD30682CF0B3FCDFF8FE
:10426800FCA242F2D171CAF800003DF081FF42F28F
:10427800D171DAF800003DF092FF0921DAF8000068
:104288003DF0D2FFB649DAF8000048F0ECFA002217
:104298004FF0FF31DAF800003FF041FD0022FF2126
:1042A800DAF800003FF040FD0022AE49DAF80000DD
:1042B8003FF03FFD30681AF065FBDFF8ACB20A2129
:1042C800CBF800003DF054FF0A21DBF800003DF078
:1042D80066FF0F21DBF800003DF011FF5A21DBF8E3
:1042E80000003DF023FF0921DBF800003DF09CFFB2
:1042F8001021DBF800003DF01AF830681AF042FB94
:10430800DFF868820A21C8F800003DF031FF0A2171
:10431800D8F800003DF043FF6FF02C01D8F80000FA
:104328003DF0EDFE5A21D8F800003DF0FFFE0921CE
:10433800D8F800003DF078FF1021D8F800003CF0D4
:10434800F6FF00228449D8F800003FF0CAFC00229A
:10435800FF21D8F800003FF0C9FC30681AF012FBC2
:10436800834F0A2138603DF003FF0A2138683DF089
:1043780016FF6FF00E0138683DF0C1FE5A2138680B
:104388003DF0D4FE092138683DF04EFF1021386811
:104398003CF0CDFF0022704938683FF0A2FC0022B3
:1043A800FF2138683FF0A2FC30682CF00BFC714DFF
:1043B80042F2D17128603DF0DBFE42F2D1712868EB
:1043C8003DF0EDFE372128683DF099FE6FF00B01B6
:1043D80028683DF0ABFE092128683DF025FF6649B5
:1043E800286848F040FA00224FF0FF3128683FF073
:1043F80096FC0022FF2128683FF096FC00225F49C6
:1044080028683FF096FC30682CF0DCFB5C4C42F2EC
:10441800D17120603DF0ACFE42F2D17120683DF0D0
:10442800BEFE002120683DF06AFE2D2120683DF087
:104438007DFE092120683DF0F7FE5249206848F0CA
:1044480012FA00224FF0FF3120683FF068FC00228A
:10445800FF2120683FF068FC00224B4920683FF0AC
:1044680068FC30682CF0AEFBDFF8209142F2D17185
:10447800C9F800003DF07CFE42F2D171D9F8000085
:104488003DF08DFE0021D9F800003DF038FE6FF0B8
:104498006301D9F800003DF049FE0921D9F8000070
:1044A8003DF0C2FE3A49D9F8000048F0DCF9002294
:1044B8004FF0FF31D9F800003FF031FC0022FF2116
:1044C800D9F800003FF030FC00223249D9F800004A
:1044D8003FF02FFC30681AF055FA2F4E0A21306051
:1044E8003DF046FE0A2130683DF059FE2D21306826
:1044F8003DF005FE5A2130683DF018FE092130686C
:104508003DF092FE102130683CF011FF0022124964
:1045180030683FF0E6FB0022FF2130683FF0E6FB01
:10452800DAF800201D4B1A60DBF800201C4B1A60DB
:10453800D8F800201B4B1A603A681B4B1A602A688F
:104548001A4B1A6022681A4B1A60BDE8F88F00BF30
:10455800FCAA0020F8AA00201E1E1EFFF4AA0020B4
:10456800FAA609008C090500F0AA0020ECAA002090
:10457800E8AA0020E4AA0020FEA60900A42B050052
:10458800E0AA0020344105003CFC0400DCAA00201D
:10459800DFA6090090FF0400D8AA0020D4AA0020B2
:1045A800D0AA0020CCAA0020C8AA0020C4AA0020B3
:1045B800C0AA00202DE9F14F00201AF0E3F9D94CE8
:1045C800102120603CF0B3FE20681AF0DBF9D64DCC
:1045D800F02128603DF0CCFD2868F0213DF0DFFD9A
:1045E800286809213DF020FEDFF840932868102153
:1045F8003CF09DFE2868002242F210713FF0A3FBB8
:104608004946286800223FF06CFB0022FF212868F9
:104618003FF06CFB20682CF0D5FAC54F42F2D171FF
:10462800C44D38603DF0A4FD386842F2D1713DF0C8
:10463800B6FD386809213DF0F7FD2946386848F08D
:1046480012F9BD4E386800224FF0FF313FF067FB8A
:1046580038680022FF213FF067FB002231463868A6
:104668003FF067FB20681AF08DF9B44F0A213860D3
:104678003DF07EFD38680A213DF091FD38682D2116
:104688003DF03DFD38685A213DF050FD386809215C
:104698003DF0CAFD102138683CF049FE20681AF048
:1046A80071F9A74F0A2138603DF062FD38680A2188
:1046B8003DF075FD38686FF02C013DF020FD38683D
:1046C8005A213DF033FD386809213DF0ADFD3868C9
:1046D80010213CF02CFE4946386800223FF001FBCF
:1046E8000022FF2138683FF001FB20681AF04AF9E0
:1046F800944F0A2138603DF03BFD38680A213DF0AF
:104708004EFD38686FF00E013DF0F9FC38685A210B
:104718003DF00CFD386809213DF086FD3868102110
:104728003CF005FE4946386800223FF0DAFA0022DC
:10473800FF2138683FF0DAFA20682CF043FADFF8F6
:1047480008A242F2D171CAF800003DF011FDDAF872
:10475800000042F2D1713DF022FDDAF8000000219C
:104768003DF0CDFCDAF800006FF044013DF0DEFCCE
:10477800DAF8000009213DF057FDDAF80000734926
:1047880048F071F8DAF8000000224FF0FF313FF0EE
:10479800C6FADAF800000022FF213FF0C5FA00222D
:1047A8006B49DAF800003FF0C4FA20681AF0EAF81A
:1047B800684F0A2138603DF0DBFC38680A213DF07B
:1047C800EEFC38680F213DF09AFC38685A213DF01C
:1047D800ADFC386809213DF027FD386810213CF010
:1047E800A6FD4946386800223FF07BFA0022FF21E7
:1047F80038683FF07BFA20682CF0E4F9DFF858912C
:1048080042F2D171C9F800003DF0B2FCD9F80000BD
:1048180042F2D1713DF0C3FCD9F800006FF04501B8
:104828003DF06DFCD9F8000000213DF07FFCD9F87F
:10483800000009213DF0F8FC2946D9F8000048F0AD
:1048480012F8D9F8000000224FF0FF313FF067FA64
:10485800D9F800000022FF213FF066FA0022314615
:10486800D9F800003FF065FA20682CF0ABF9DFF8C2
:10487800EC8042F2D171C8F800003DF079FCD8F81C
:10488800000042F2D1713DF08AFCD8F800004621C0
:104898003DF035FCD8F8000000213DF047FCD8F881
:1048A800000009213DF0C0FC2946D8F8000047F077
:1048B800DAFFD8F8000000224FF0FF313FF02FFA5E
:1048C800D8F800000022FF213FF02EFA00223146DE
:1048D800D8F800003FF02DFA20682CF073F9204D2D
:1048E80042F2D17128603DF043FC286842F2D17150
:1048F8003DF055FC286823213DF001FC194F28683C
:104908006FF002013DF012FC286809213DF08CFC93
:104918003946286847F0A7FF286800224FF0FF3182
:1049280022E000BFBCA90020B8A900201E1E1EFF5F
:10493800B4A90020ACED09008C090500B0A900203D
:10494800ACA90020A8A90020A4A9002001A709005B
:1049580090FF0400A0A900209CA9002098A900208D
:1049680094A90020C7B009003FF0D9F928680022AF
:10497800FF213FF0D9F90022314628683FF0D9F9E4
:1049880020682CF01FF9C44D42F2D17128603DF027
:10499800EFFB286842F2D1713DF001FC28686FF006
:1049A80022013DF0ACFB28686FF002013DF0BEFB30
:1049B800286809213DF038FC3946286847F053FF3C
:1049C800286800224FF0FF313FF0A9F9286800223B
:1049D800FF213FF0A9F90022314628683FF0A9F9E4
:1049E800206829F00BFE4FF07F4BAC4E322130602F
:1049F8003DF0BEFB306823213DF0D1FB30686FF0FD
:104A08003B013DF07CFB30682D213DF08FFB306889
:104A180009213DF009FC30684FF480613CF08FFEBD
:104A2800306810213CF083FC306800229C493FF03C
:104A380058F930680022FF213FF058F93068002209
:104A48004FF0FF313FF057F95946306800223FF0E8
:104A58005CF90022FF2130683FF05CF9206829F0FA
:104A6800CDFD904F322138603DF082FB386823211C
:104A78003DF095FB38683C213DF041FB38682D211D
:104A88003DF054FB386809213DF0CEFB38684FF4FF
:104A980080613CF054FE386810213CF048FC3868CE
:104AA800002281493FF01DF938680022FF213FF0BC
:104AB8001DF95946386800223FF027F90022FF21E6
:104AC80038683FF027F920682CF07CF8774D42F2DF
:104AD800D17128603DF04CFB286842F2D1713DF05D
:104AE8005EFB28683C213DF00AFB28682D213DF03B
:104AF8001DFB286809213DF097FB28686C4947F0A1
:104B0800B2FE286800224FF0FF313FF008F900227A
:104B1800FF2128683FF008F9206829F06FFD654DEE
:104B2800322128603DF024FB286823213DF037FB23
:104B3800286800213DF0E3FA28682D213DF0F6FAB7
:104B4800286809213DF070FB28684FF480613CF02B
:104B5800F6FD286810213CF0EAFB28680022564937
:104B68003FF0BFF828680022FF213FF0BFF828680F
:104B780000224FF0FF313FF0BEF859462868002266
:104B88003FF0C3F80022FF2128683FF0C3F82068EF
:104B98002CF018F8DFF824B142F2D171CBF80000FC
:104BA8003DF0E6FADBF8000042F2D1713DF0F7FA89
:104BB800DBF800006FF03B013DF0A1FADBF80000E4
:104BC8002D213DF0B3FADBF8000009213DF02CFB64
:104BD800DBF800003A4947F046FEDBF80000002207
:104BE8004FF0FF313FF09BF80022FF21DBF8000077
:104BF8003FF09AF820682BF0E5FF324C42F2D17171
:104C080020603DF0B5FA206842F2D1713DF0C7FA54
:104C1800206800213DF073FA20682D213DF086FAC6
:104C2800206809213DF000FB2068274947F01BFE5A
:104C3800206800224FF0FF313FF071F82068002211
:104C4800FF213FF071F8214BDAF800201968204B5A
:104C5800D8F8000019601F4B1A6032681E4B1A60A2
:104C68002A681E4B1A60D9F80020FDF741FF00237F
:104C780007221B4930683BF084FE002307221949AC
:104C880028683BF07EFE002307221749386801B0E8
:104C9800BDE8F04F3BF075BE90A900208CA900201C
:104CA800048400FF88A900206B3E00FF84A900202F
:104CB8000DA7090080A90020000084FF7CA900201E
:104CC80013A7090078A9002019A70900B4A9002092
:104CD80074A9002070A900206CA9002068A90020F0
:104CE80033980300379803003B9803002DE9F14FF0
:104CF800002019F047FEF34C102120603CF017FB10
:104D0800206819F03FFEF04DF02128603DF030FAA0
:104D18002868F0213DF043FA28680921EB4E3DF060
:104D280083FA286810213CF002FB2868002242F22E
:104D380010713FF008F83146286800223EF0D1FF94
:104D48000022FF2128683EF0D1FF20682BF03AFFAF
:104D58004FF0FF35DFF8788342F2D171C8F80000D0
:104D68003DF006FAD8F8000042F2D1713DF017FA8A
:104D7800D8F800006FF03601DFF858933DF0BFF91E
:104D8800D8F800006FF02C013DF0D0F9D8F80000F9
:104D980009213DF049FA4946D8F80000CE4F47F0BE
:104DA80062FD2946D8F8000000223EF0B8FFD8F886
:104DB80000000022FF213EF0B7FF00223946D8F854
:104DC80000003EF0B6FF20682BF0FCFEDFF80C83F5
:104DD80042F2D171C8F800003DF0CAF9D8F80000D5
:104DE80042F2D1713DF0DBF9D8F800006FF01B01F9
:104DF8003DF085F9DFF8E8A2D8F800006FF02E0141
:104E08003DF094F9D8F8000009213DF00DFA51461B
:104E1800D8F8000047F027FD2946D8F800000022FE
:104E28003EF07DFFD8F800000022FF213EF07CFF15
:104E380000223946D8F800003EF07BFF20682BF0AE
:104E4800C1FEDFF8A08242F2D171C8F800003DF03F
:104E58008FF9D8F8000042F2D1713DF0A0F9D8F8E6
:104E6800000000213DF04BF9D8F800006FF02B014D
:104E78003DF05CF9D8F8000009213DF0D5F9494624
:104E8800D8F8000047F0EFFC2946D8F800000022C7
:104E98003EF045FFD8F800000022FF213EF044FF15
:104EA80000223946D8F800003EF043FF20682BF076
:104EB80089FEDFF8348242F2D171C8F800003DF073
:104EC80057F9D8F8000042F2D1713DF068F9D8F8E6
:104ED800000037213DF013F9D8F800006FF02A01DF
:104EE8003DF024F9D8F8000009213DF09DF9494624
:104EF800D8F8000047F0B7FC2946D8F8000000228F
:104F08003EF00DFFD8F800000022FF213EF00CFF14
:104F180000223946D8F800003EF00BFF20682BF03D
:104F280051FEDFF8C88142F2D171C8F800003DF0A7
:104F38001FF9D8F8000042F2D1713DF030F9D8F8E5
:104F480000001C213DF0DBF8D8F800006FF02E01BE
:104F58003DF0ECF8D8F8000009213DF065F951461C
:104F6800D8F8000047F07FFC2946D8F80000002256
:104F78003EF0D5FED8F800000022FF213EF0D4FE16
:104F880000223946D8F800003EF0D3FE20682BF006
:104F980019FEDFF85C8142F2D171C8F800003DF0DB
:104FA800E7F8D8F8000042F2D1713DF0F8F8D8F8E7
:104FB80000006FF036013DF0A2F8D8F800002D216E
:104FC8003DF0B4F8D8F8000009213DF02DF9494624
:104FD800D8F8000047F047FC2946D8F8000000221E
:104FE8003EF09DFED8F800000022FF213EF09CFE16
:104FF80000223946D8F800003EF09BFE20682BF0CE
:10500800E1FDDFF8F08042F2D171C8F800003DF010
:10501800AFF8D8F8000042F2D1713DF0C0F8D8F8E6
:1050280000006FF01B013DF06AF8DFF8CCA0D8F85B
:1050380000002B213DF07AF8D8F8000009213DF056
:10504800F3F85146D8F8000047F00DFC2946D8F887
:10505800000000223EF063FED8F800000022FF2185
:105068003EF062FE00223946D8F800003EF061FEAC
:1050780020682BF0A7FDDFF8848042F2D171C8F8D0
:1050880000003DF075F8D8F8000042F2D1713DF00B
:1050980086F8D8F8000000213DF031F8D8F8000073
:1050A8002D213DF043F8D8F8000009213DF0BCF867
:1050B8004946D8F8000047F0D6FB2946D8F8000042
:1050C80000221DE0BCAA0020B8AA00201E1E1EFF58
:1050D800B4AA00201EA7090038060500B0AA0020BF
:1050E800C7B00900ACAA0020A8AA0020A4AA0020E2
:1050F800A0AA00209CAA002021A7090098AA0020A5
:105108003EF00DFED8F800000022FF213EF00CFE14
:1051180000223946D8F800003EF00BFE20682BF03C
:1051280051FDDFF8588342F2D171C8F800003DF014
:105138001FF8D8F8000042F2D1713DF030F8D8F8E5
:1051480000001C213CF0DBFFD8F800002B213CF0CC
:10515800EDFFD8F8000009213DF066F85146D8F86F
:10516800000047F080FB2946D8F8000000223EF0F6
:10517800D6FDD8F800000022FF213EF0D5FD002220
:105188003946D8F800003EF0D4FD20682BF01AFD0F
:10519800DFF8EC8242F2D171C8F800003CF0E8FF79
:1051A800D8F8000042F2D1713CF0F9FFD8F80000BD
:1051B80037213CF0A4FFD8F800002D213CF0B6FFC1
:1051C800D8F8000009213DF02FF84946D8F800002A
:1051D80047F049FB2946D8F8000000223EF09FFD21
:1051E800D8F800000022FF213EF09EFD002239463B
:1051F800D8F800003EF09DFD206829F0FFF9A14F86
:10520800142138603CF0B4FF386814213CF0C7FF23
:1052180038686FF036013CF072FF38686FF048016B
:105228003CF084FF386809213CF0FEFF38684FF4F1
:1052380080613CF084FA386810213CF078F83868CE
:10524800002203213EF07FFD2946386800223EF007
:1052580048FD38680022FF213EF048FD002229461B
:1052680038683EF048FD20682BF0ACFC864F42F2CF
:10527800D17138603CF07CFF386842F2D1713CF063
:105288008EFF386800213CF03AFF38686FF0630100
:105298003CF04CFF386809213CF0C6FF38687B4970
:1052A80047F0E1FA2946386800223EF038FD3868B0
:1052B8000022FF213EF038FD0022754938683EF093
:1052C80038FD206829F09AF9724F142138603CF0B3
:1052D8004FFF386814213CF062FF386800213CF029
:1052E8000EFF38686FF048013CF020FF386809214C
:1052F8003CF09AFF38684FF480613CF020FA386837
:1053080010213CF014F83868002203213EF01BFD00
:105318002946386800223EF0E4FC38680022FF2164
:105328003EF0E4FC0022294638683EF0E4FC2068A0
:1053380029F064F9584F142138603CF019FF386897
:1053480014213CF02CFF386837213CF0D8FE38682F
:105358006FF048013CF0EAFE386809213CF064FF30
:1053680038684FF480613CF0EAF9386810213BF066
:10537800DEFF3868002203213EF0E5FC2946386844
:1053880000223EF0AEFC38680022FF213EF0AEFC61
:105398000022294638683EF0AEFC206829F02EF934
:1053A8003E4F142138603CF0E3FE386814213CF08D
:1053B800F6FE38686FF036013CF0A1FE38686FF0F1
:1053C80012013CF0B3FE386809213CF02DFF386823
:1053D8004FF480613CF0B3F9386810213BF0A7FF27
:1053E8003868002203213EF0AEFC294638680022C6
:1053F8003EF077FC38680022FF213EF077FC00225F
:10540800294638683EF077FC206829F0F7F8244FE1
:10541800142138603CF0ACFE386814213CF0BFFE23
:10542800386800213CF06BFE38686FF012013CF0E0
:105438007DFE386809213CF0F7FE38684FF480613A
:105448003CF07DF9386810213BF071FF3868002284
:1054580003213EF078FC2946386800223EF041FCE2
:1054680038680022FF213EF041FC002229463868B6
:105478003EF041FC206829F0C1F813E094AA00200E
:1054880090AA00208CAA002088AA0020DFA6090084
:1054980090FF040084AA002080AA00207CAA002093
:1054A80078AA0020E84F142138603CF061FE386883
:1054B80014213CF074FE386837213CF020FE38682F
:1054C8006FF012013CF032FE386809213CF0ACFE66
:1054D80038684FF480613CF032F9386810213BF0AD
:1054E80026FF3868002203213EF02DFC2946386843
:1054F80000223EF0F6FB38680022FF213EF0F6FB62
:105508000022294638683EF0F6FB206829F076F834
:10551800CE4F142138603CF02BFE386814213CF043
:105528003EFE38686FF036013CF0E9FD38680F211F
:105538003CF0FCFD386809213CF076FE38684FF4F1
:1055480080613CF0FCF8386810213BF0F0FE3868C8
:10555800002203213EF0F7FB2946386800223EF07E
:10556800C0FB38680022FF213EF0C0FB002229461C
:1055780038683EF0C0FB206829F040F8DFF8D08298
:105588001421C8F800003CF0F3FDD8F800001421FD
:105598003CF005FED8F8000000213CF0B0FDD8F83A
:1055A800000010213CF0C2FDD8F8000009213CF0B1
:1055B8003BFED8F800004FF480613CF0C0F8D8F802
:1055C800000010213BF0B3FED8F8000000220321B0
:1055D8003EF0B9FB2946D8F8000000223EF081FBD6
:1055E800D8F800000022FF213EF080FB0022294667
:1055F800D8F800003EF07FFB206828F0FFFF954FA9
:10560800142138603CF0B4FD386814213CF0C7FD23
:10561800386837213CF073FD38680F213CF086FD6F
:10562800386809213CF000FE38684FF480613CF08E
:1056380086F8386810213BF07AFE3868002203218A
:105648003EF081FB2946386800223EF04AFB386864
:105658000022FF213EF04AFB0022294638683EF02E
:105668004AFB206828F0CAFFDFF8EC911421C9F83A
:1056780000003CF07DFDD9F8000014213CF08FFDBE
:10568800D9F800006FF036013CF039FDD9F8000078
:1056980047213CF04BFDD9F8000009213CF0C4FD3E
:1056A800D9F800004FF480613CF049F8D9F80000BF
:1056B80010213BF03CFED9F80000002203213EF007
:1056C80042FB2946D9F8000000223EF00AFBD9F82F
:1056D80000000022FF213EF009FB00222946D9F8EC
:1056E80000003EF008FB206828F088FFDFF86C9186
:1056F8001421C9F800003CF03BFDD9F80000142142
:105708003CF04DFDD9F8000000213CF0F8FCD9F838
:10571800000047213CF00AFDD9F8000009213CF0BF
:1057280083FDD9F800004FF480613CF008F8D9F8FF
:10573800000010213BF0FBFDD9F8000000220321F6
:105748003EF001FB2946D9F8000000223EF0C9FAD4
:10575800D9F800000022FF213EF0C8FA00222946AD
:10576800D9F800003EF0C7FA206828F047FFDFF8B4
:10577800F0901421C9F800003CF0FAFCD9F80000B8
:1057880014213CF00CFDD9F8000037213CF0B7FC9F
:10579800D9F8000047213CF0C9FCD9F800000921DC
:1057A8003CF042FDD9F800004FF480613BF0C7FFA0
:1057B800D9F8000010213BF0BAFDD9F8000000220A
:1057C80003213EF0C0FA2946D9F8000000223EF035
:1057D80088FAD9F800000022FF213EF087FA00225B
:1057E8002946D9F800003EF086FA20682BF0EAF93D
:1057F800DFF870A042F2D171CAF800003CF0B8FCA2
:10580800DAF8000042F2D1713CF0C9FCDAF8000085
:105818006FF03601DFF850B03CF071FCDAF80000A8
:105828006FF049013CF082FCDAF8000009213CF0F5
:10583800FBFC5946DAF80000DFF8309047F013F81F
:105848003146DAF8000013E074AA002070AA00209C
:105858006CAA002068AA002064AA002060AA002080
:105868005CAA002058AA002023A70900E40205002A
:1058780000223EF054FADAF800000022FF213EF040
:1058880053FA00224946DAF800003EF052FA20683E
:105898002BF098F9DFF8E0A342F2D171CAF80000C2
:1058A8003CF066FCDAF8000042F2D1713CF077FC7B
:1058B800DAF8000000213CF022FCDAF800006FF072
:1058C80049013CF033FCDAF8000009213CF0ACFC5B
:1058D8005946DAF8000046F0C6FF3146DAF800000B
:1058E80000223EF01CFADAF800000022FF213EF008
:1058F8001BFA00224946DAF800003EF01AFA20683E
:105908002BF060F9DFF874A342F2D171CAF80000F5
:105918003CF02EFCDAF8000042F2D1713CF03FFC7A
:10592800DAF8000037213CF0EAFBDAF800006FF003
:1059380049013CF0FBFBDAF8000009213CF074FC5B
:105948005946DAF8000046F08EFF3146DAF80000D2
:1059580000223EF0E4F9DAF800000022FF213EF0D0
:10596800E3F900224946DAF800003EF0E2F920683F
:105978002BF028F9DFF808A342F2D171CAF8000029
:105988003CF0F6FBDAF8000042F2D1713CF007FC7B
:10599800DAF800006FF036013CF0B1FBDAF80000ED
:1059A8000E213CF0C3FBDAF8000009213CF03CFC76
:1059B8005946DAF8000046F056FF3146DAF800009A
:1059C80000223EF0ACF9DAF800000022FF213EF098
:1059D800ABF900224946DAF800003EF0AAF920683F
:1059E8002BF0F0F8DFF89CA242F2D171CAF800005F
:1059F8003CF0BEFBDAF8000042F2D1713CF0CFFB7C
:105A0800DAF8000000213CF07AFBDAF800000F21F8
:105A18003CF08CFBDAF8000009213CF005FC594603
:105A2800DAF8000046F01FFF3146DAF800000022DD
:105A38003EF075F9DAF800000022FF213EF074F913
:105A480000224946DAF800003EF073F920682BF08E
:105A5800B9F8DFF834A242F2D171CAF800003CF07C
:105A680087FBDAF8000042F2D1713CF098FBDAF8D3
:105A7800000037213CF043FBDAF800000E213CF02F
:105A880055FBDAF8000009213CF0CEFB5946DAF85C
:105A9800000046F0E8FE3146DAF8000000223EF049
:105AA8003EF9DAF800000022FF213EF03DF900221D
:105AB8004946DAF800003EF03CF920682BF082F8FD
:105AC800DFF8C8A142F2D171CAF800003CF050FBDF
