:020000040100F9
:100000007084002135C301014D50020121C301015B
:1000100021C3010121C3010121C30101000000002E
:10002000000000000000000000000000E1C4010129
:1000300021C3010100000000A1C4010121C301018D
:100040009DC601019DC601019DC601019DC601011C
:100050009DC601019DC601019DC601019DC601010C
:10006000115502019DC601019DC601019DC60101F8
:10007000DD5402019DC601019DC601019DC601011D
:100080009DC60101F75402019DC601019DC60101F3
:100090009DC601019DC601019DC601019DC60101CC
:1000A0009DC601019DC601019DC601019DC60101BC
:1000B0009DC601019DC601012DE9F00791E8F807F1
:1000C000B2E802105B1854EB0C04B2E802104D4188
:1000D00056EB0C06B2E802104F4158EB0C08B2E8A0
:1000E000021059EB01095AEB0C0A80E8F80780412D
:1000F0000130BDE8F00770472DE9F00791E8F807F7
:10010000B2E802105B1A74EB0C04B2E802108D41E5
:1001100076EB0C06B2E802108F4178EB0C08B2E8DF
:10012000021079EB01097AEB0C0A80E8F8078041AC
:100130004042BDE8F00770472DE9F007524290E8D1
:100140007800B1E880071740DB1918EA020854EB81
:10015000080419EA020955EB09051AEA020A56EBE6
:100160000A0678C090E87800B1E8800717407B4124
:1001700018EA020854EB080419EA020955EB0905CC
:100180001AEA020A56EB0A0678C080410130BDE83F
:10019000F00770472DE9F007524290E87800B1E887
:1001A00080071740DB1B18EA020874EB080419EA01
:1001B000020975EB09051AEA020A76EB0A0678C00D
:1001C00090E87800B1E880071740BB4118EA0208C0
:1001D00074EB080419EA020975EB09051AEA020A28
:1001E00076EB0A0678C080414042BDE8F0077047D0
:1001F0002DE9F00152424FF0040890E8300091E8F8
:10020000C000A31B1340E41AF618EB1B1340ED1AB1
:10021000FF1830C0C0C1B8F10108EED1BDE8F0014F
:10022000704700BF00B592E8DC072DE9DC07B1E8B4
:10023000805702B4A7FB02510A95A8FB020B0918CC
:100240000020E7FB03105BEB000B00204041E9FBC3
:1002500002B00B91A8FB0351401800214941EAFB71
:1002600002011BEB050B0025E7FB04B568410025E7
:10027000E7FB0605694100256D41E8FB0615CDF851
:1002800030B0A9FB03B689190026EAFB03167541B5
:1002900000267641ECFB035610EB0B005FF0000BE1
:1002A000E8FB040B51EB0B015FF0000BE9FB041BB7
:1002B00055EB0B055FF0000BEAFB045B56EB0B06FE
:1002C0005FF0000B5BEB0B0BECFB046B0D90ACFBDE
:1002D0000230059C2D180020EEFB02504641002004
:1002E000E9FB04605BEB000B00204041EAFB04B03B
:1002F0005B180021E7FB04314D410021E8FB04516C
:10030000069C4E410021E8FB04615BEB010B0021E0
:10031000E9FB04B1484100214941EAFB04010E9385
:10032000A7FB0432079CB6180022E7FB04625BEBD4
:10033000020B0022E8FB04B250410022E9FB040258
:10034000514100225241EAFB0412049CED180023A3
:10035000E9FB04535E410023EAFB0463089C5BEB6A
:10036000030B0023E7FB04B358410023E8FB04031D
:1003700059410023E9FB04135A4100235B41EAFB86
:1003800004230F955DF8049B99E80006DDF80080D2
:10039000A9FB08541BEB040B0024EAFB08B4DDF8AE
:1003A000108060410024ECFB080461410024EEFB56
:1003B000081462410024E9FB0824634100246441DD
:1003C000EAFB0834DDF8048076190025EEFB0865A9
:1003D0005BEB050B0025E9FB08B568410025EAFB4E
:1003E0000805DDF8148069410025ECFB08156A4119
:1003F0000025EEFB08256B410025E9FB08356C4123
:1004000000256D41EAFB08450F96DDF80880AEFB3C
:10041000087680190026E9FB080671410026EAFBF0
:100420000816DDF8188072410026ECFB082673419F
:100430000026EEFB083674410026E9FB08467541AC
:1004400000267641EAFB0856DDF80C801BEB070B13
:100450000027ECFB08B778410027EEFB080779413D
:100460000027E9FB08177A410027EAFB0827DDF897
:100470001C807B410027ECFB08377C410027EEFB0A
:1004800008477D410027E9FB08577E4100277F414F
:10049000EAFB086708B000BD2DE9F14F87B0FFF710
:1004A000C1FEDDF81C8008F1200888E8FF00FFBCD1
:1004B00087E87F08BDE8F08F00B591E84C57A2FBB4
:1004C00002410194A2FB034524190020E2FB0650DF
:1004D0006D417F41641802940021E2FB0801A3FBF7
:1004E000034B654103950024E3FB060440417F4133
:1004F000091900246441E2FB0914FF0750EB0B00CB
:1005000004900025E2FB0A455FF0000BE3FB081BAB
:1005100049415FEA370714EB0B045FF0000BE3FB84
:10052000094B55EB0B055FF0000B5BEB0B0BE2FB94
:100530000C5BFF0F0020E2FB0EB000225141E6FBF6
:10054000061205910021E6FB084164417F416D18C8
:100550000021E3FB0A515BEB010B0021E3FB0CB133
:10056000484100214941E3FB0E010023E6FB09530A
:100570001BEB030B0023E6FB0AB358410023E6FB09
:100580000C03594100235B41E6FB0E13FF07544166
:1005900006946D417F41A8FB08265541079500222E
:1005A000E8FB09B25BEB0B0B7F4180180022E8FBF4
:1005B0000A0251410022E8FB0C125A4100235B4120
:1005C000E8FB0E230024E9FB0E340025E9FB0A15A5
:1005D00052190025E9FB0C256B410025EAFB0C357F
:1005E0006C4100256D41EAFB0E45FF075BEB060BF6
:1005F0000026ECFB0E564041494152415B416441AB
:100600006D417641AEFB0EE848F100087F00A9FB82
:100610000979784151EB0901AAFB0A7A7A4153EB37
:100620000A03ACFB0C7C7C4155EB0C0556EB0E062B
:1006300048F1000700BD00BF2DE9F14F87B0FFF77B
:100640003BFFDDF81C8008F1200888E8FF00FFBCB4
:1006500087E87F08BDE8F08F30B44FF0000310F852
:10066000014B11F8015B013A84EA050443EA0403F3
:10067000F5D1A3F101034FEAD37030BC704700BF3E
:100680004FF0000310F8012B013943EA0203F9D1BE
:10069000A3F101034FEAD370704700BF30B411F8E3
:1006A000014B12F8015B6C4000F8014B013BF6D1A5
:1006B00030BC70472DE9F00791E8F807B2E8021066
:1006C0005B1854EB0C04B2E802104D4156EB0C06DB
:1006D000B2E802104F4158EB0C08B2E8021059EB97
:1006E00001095AEB0C0A8941B3F1FF3374F1FF346D
:1006F00075F1FF3576F1000677F1000778F1000813
:1007000079F101097AF1FF3A51F100015B184C418E
:100710004D4156F1000657F1000758F1000859EB1A
:10072000D1795AEB010A80E8F807BDE8F007704775
:100730002DE9F00791E8F807B2E802105B1A74EBB4
:100740000C04B2E802108D4176EB0C06B2E8021000
:100750008F4178EB0C08B2E8021079EB01097AEBD3
:100760000C0A89415B184C414D4156F1000657F186
:10077000000758F1000859EBD1795AEB010A80E8DB
:10078000F807BDE8F007704718EB040859EB0509B6
:100790005AEB060A5BEB070B5FF0000C4CF1000C08
:1007A00018EB050859EB06095AEB070A5BEB070B38
:1007B00050EB0C005FF0000C51EB0C0152EB0C0203
:1007C00063414CF1000CB8EB070879F100097AF1AC
:1007D000000A7BEB040BA841B141A241B3416CF18B
:1007E000000CBBEB050BB041B941AA41BB416CF118
:1007F000000C4CF001068CF0020718EB060859EBD0
:100800006C095AEB6C0A7BEB6C0B70EB6C0471EBB4
:100810006C0572EB670653EB6C076CEB6C0C18EB1A
:100820000C0059EB0C015AEB0C025BF1000354F184
:10083000000455F1000556EBDC7657EB0C077047CA
:100840002DE9F14F87B0FFF7EDFCDDF81080DDF802
:100850001490DDF818A0FFF797FFBDE8000FFFF731
:1008600093FF03B05DF8048B88E8FF00BDE8F08FCC
:100870002DE9F14F87B0FFF71FFEDDF81080DDF89E
:100880001490DDF818A0FFF77FFFBDE8000FFFF719
:100890007BFF03B05DF8048B88E8FF00BDE8F08FB4
:1008A0001FB50B4B01A901934FF4B873ADF8083095
:1008B00008238DF80A30837803208DF80B30FF234E
:1008C0008DF80C3000F0A8FE05B05DF804FB00BF09
:1008D000A7A601011FB50B4B01A901934FF4427369
:1008E000ADF8083008238DF80A30437802208DF8DF
:1008F0000B3000238DF80C3000F08EFE05B05DF853
:1009000004FB00BFDDAA01011FB5002301A90120DE
:1009100003930193084B0293084B1B78002B14BFE1
:10092000022301238DF80B30FF238DF80C3000F0EB
:1009300073FE05B05DF804FB40010800300900219A
:100940001FB50A4B01A901934FF42673ADF8083087
:1009500008238DF80A30037800208DF80B308DF8CD
:100960000C0000F059FE05B05DF804FB77AC010106
:100970001FB572B6194B5D68E5B9BFF34F8F1849C3
:10098000184BCA6802F4E0621343CB60BFF34F8F89
:1009900000BFFDE7B4FBF6F4D3B20132002CF9D16D
:1009A00003F110026A4402F80C4C0A2233B901A880
:1009B000A847E2E7044600220A26EDE7013BDBB246
:1009C00003F110040DEB0406B0FBF2F402FB14007B
:1009D000303006F80C0C2046E8E700BF3009002153
:1009E00000ED00E00400FA0513B5114C6846237CC5
:1009F0008DF80130E37B8DF80030A37BADF8043037
:100A0000637BADF802300AF0A9FD18B1DE210320A6
:100A1000FFF7AEFFA07E0AF005FE08B1E121F6E780
:100A2000607E0AF0F9FD08B1E221F0E702B010BDE6
:100A3000300900212DE9F34104460D4671B91C4BE4
:100A400093F82E3053B9012101A80193FFF7F2FF6B
:100A500020B94FF403710320FFF78AFF2368002DAC
:100A6000144F4FF0000603F10703DFF84C800CBF72
:100A70002046002023F00703236000F0A5FD57F86F
:100A8000043B0BB1404698470136102EF7D100F0D9
:100A900013FE031E09DB206818440DB1002804DB97
:100AA0002060012002B0BDE8F0810020FAE700BF1D
:100AB0003009002158000021380900212DE9FF41AB
:100AC000B0FA80F60546039003A876093146FFF791
:100AD000B1FF20B96FF00B0004B0BDE8F0818F4C7E
:100AE000A17B607B0331237CE27B033016F090FA1C
:100AF000011EEFDB0398002D237A627A00F10300D8
:100B0000134420F0030003FB01F1039008BF002011
:100B100000F014FF039B0DB9C342DBD41844A37A41
:100B20000390C3B1E17D1944E37A1944FF29D1DC74
:100B30000330002D628AC9B220F00300039008BF81
:100B4000002000F06BFF031EC4DB039818440DB9AE
:100B50000028BFDB0390724F7B68F3B1617CE1B189
:100B600094F82F300398002B00F1070014BF4023A6
:100B7000252320F0070014BF4FF481722822002D96
:100B8000039008BF002006F007FC031EA2DB0398B9
:100B900018440DB900289DDB0390217DC1B1A37AD3
:100BA0001BB97B68A3B1637C93B10398002D00F15E
:100BB000070020F00700039008BF00200CF09EFD06
:100BC000031E87DB039818440DB9002882DB0390CD
:100BD000544B1B68B3B1217BA1B10398002D627DFA
:100BE00000F1030020F00300039008BF00209847A5
:100BF000031EFFF66FAF0398184415B90028FFF6DF
:100C000069AF0390484B1B68ABB1A17D99B10398C4
:100C1000002D00F1030020F00300039008BF002026
:100C20009847031EFFF656AF0398184415B90028DD
:100C3000FFF650AF03903D4BD3F80080B8F1000FA2
:100C400019D0E17DB9B10398002DA37E00F1030016
:100C5000227E009320F00300637E039008BF0020F3
:100C6000C047031EFFF636AF0398184415B9002895
:100C7000FFF630AF0390FB69BBB1217BA9B10398AC
:100C8000002D227F00F1030020F00300039008BF35
:100C9000002000F0B1FF031EFFF61CAF03981844BC
:100CA00015B90028FFF616AF039094F82700C0B1DD
:100CB000039A94F821300332A17F22F007021944ED
:100CC000334642F00402C9B2039200F0D7FF031E7C
:100CD000FFF600AF0398184415B90028FFF6FAAEE6
:100CE000039094F82810002975D0039F002D628D81
:100CF00007F1070708BF002027F0070718BF38468D
:100D0000039716F09AF9031EFFF6E4AE0398184411
:100D100075B90028FFF6DEAE0AE000BF30090021F9
:100D20005800002198000021A00000219C00002113
:100D300003901DB1618D384611F030FD94F82210FA
:100D400000294AD094F82630002B46D00398002D75
:100D5000A28C00F1070002F1240220F0070092B2F9
:100D6000039008BF002016F068F9021EFFF6B2AE2D
:100D7000039F3A4415B9002AFFF6ACAE033294F84B
:100D80002030A17F22F0070294F826001944334650
:100D900042F00402C9B2039200F062FF031EFFF6A4
:100DA00099AE0398184415B90028FFF693AE039046
:100DB0003DB1A28C384694F82210083292B211F05C
:100DC000F3FC236BA3B1039B05B123632833039387
:100DD0004DB1002080E60F46ABE7002DF1D0002298
:100DE00011461046EBE7002BFFF674AE039873E64E
:100DF000002DEED1FAE700BF38B50546002844D0F3
:100E000014F0A4FE10B94FF0FF3038BD1AF02BF8E3
:100E1000B0F5FA7FF7D81F4C1F486560002500F039
:100E2000B3FA402229461D4884F82E5015F00CFADA
:100E30002622294604F10800257084F82F502563E6
:100E400015F002FA1B2240F20113627340F21B32CA
:100E500023810123E28140F20232A37222821F2207
:100E60002377F72362824FF40272A384FB23A282CA
:100E700044F6011263852283EFF3108472B600F00A
:100E80000DFF2CB962B62046BFE76FF01500BCE736
:100E90002846BAE730090021E9090001580000217D
:100EA00010B5002840F0AB80564C94F82E30032B40
:100EB00000F0A280A1B1002A70D00139142900F2FB
:100EC0009E80DFE801F00B1C1F2F575F78356265AD
:100ED000733B414E537D808E91958500137823722C
:100EE0000020FFF7EBFD0028B7BF012302236FF0BE
:100EF0000B0084F82E30A8BF84F82E3010BD137874
:100F00006372EDE79378002B48D0D378002B45D05F
:100F100013781A2B42D953781A2B3FD91368C4F887
:100F20000D30DDE71378E27A934237D3A372D7E727
:100F30001378A27A934231D8E372D1E71378A27A78
:100F400093422BD8E375CBE713783BB35378013B3F
:100F5000DBB2F82B22D81388927823832A4B9A701D
:100F6000BEE71078E0760FF0CBFEB9E71378ABB1AF
:100F70002377B5E71378254A52680AB1012B0DD9BA
:100F80006374ADE713886382AAE713782373A7E736
:100F90001E491378C96921B9012B04D86FF01500D7
:100FA000ACE7002BFAD01378637599E71378082B18
:100FB000F4D8A37594E71388FF2BEFD823758FE738
:100FC000137863778CE713780E2BE7D8A37787E73E
:100FD00013680F49C4F8223053684B6013890B81A2
:100FE0007EE71378E3777BE7137884F8213077E79F
:100FF000137884F8203073E74FF0FF307EE76FF00E
:101000002C007BE73009002148090021580000210D
:1010100052090021F8B50D46074660B359B311F0E7
:10102000070428D1154E96F82E30012B02D16FF00F
:101030000B00F8BD032B02D14FF0FF30F9E700F0B1
:10104000D7F80028F8D02846FFF738FD0028EEDB57
:10105000384614F0EFFE86F834000FF057FE96F88D
:101060003400316B0AF09AFBFFF7BEFC03232046E5
:1010700086F82E30DDE76FF01500DAE73009002141
:1010800010B5084C94F82E30032B05D10AF0A2FBC2
:1010900094F8340014F0EAFE16F017F9002084F8F2
:1010A0002E0010BD3009002150B1074B03F114028E
:1010B00053F8041B934240F8041BF9D100207047F9
:1010C0006FF01500704700BF738A0201074B10B51F
:1010D00093F82E4034B90AF0F3FA054B054A20463E
:1010E000DA6010BD4FF0FF30FBE700BF3009002190
:1010F00058000021A1080001074B10B593F82E40BD
:1011000034B90AF0F1FA054B054A20469A6010BD41
:101110004FF0FF30FBE700BF3009002158000021ED
:10112000D508000108B50B4B93F82E2072B993F83F
:101130002F3043B10AF016FB074B0020074A5A60D4
:10114000074A1A6008BD0AF0F1FAF5E74FF0FF30E0
:10115000F8E700BF3009002158000021090900010B
:1011600041090001054B10B593F82E401CB917F04A
:1011700035F9204610BD4FF0FF30FBE73009002164
:10118000054B10B593F82E401CB917F02AF92046EC
:1011900010BD4FF0FF30FBE730090021054B10B5C3
:1011A00093F82E401CB917F01FF9204610BD4FF0E0
:1011B000FF30FBE730090021054B10B593F82E40B6
:1011C0001CB917F013F9204610BD4FF0FF30FBE7B4
:1011D0003009002102680020014B1A60704700BFEF
:1011E00068090021014B1B68184700BF68090021EE
:1011F000024B1868003818BF0120704768090021A9
:10120000F7B504462D4E071D2C4837600BF048FB00
:101210000228054606D12949204615F0F0F828464F
:1012200003B0F0BD042842D13378092B0AD0252B16
:101230001ED03146204615F05CF9B0F5817F2DD3E4
:10124000722112E005213E2015F0ACF80028F0D103
:10125000F37801A93279684643EA0223ADF80030F9
:1012600015F0B4FC0028CFD053210820FFF780FBF5
:101270001A213E2015F096F80028DAD173686946E5
:1012800001A8C3F30F23ADF8043011238DF8063005
:1012900015F0B6FC0028B7D06521E6E70028B3D0EA
:1012A000A178207815F07EF80028B8D1ACE708289E
:1012B000B5D10249204615F0DAF8B0E76C090021F3
:1012C000074B4FF0FF3141F6FF72C3E900120549A9
:1012D0000022C1E900221F21C3E90212704700BFAA
:1012E00000000021700A00213F280CD801380B4B68
:1012F000C0F3421200F01F0053F8223023FA00F02E
:1013000000F001007047FF2806D04038044BC0F3BE
:10131000421200F01F00EFE701207047000000219B
:10132000700A0021074B0146006849681A4603C24B
:1013300040F48C221A6041F0107242F4FF625A604D
:10134000704700BF000000210246024B0068516850
:1013500003C37047700A00210246024B00685168BF
:1013600003C37047080000210138064BC0F3421246
:1013700000F01F0003EB82039B6823FA00F000F0EB
:101380000100704700000021014B1860704700BF4A
:10139000780A002110B5FFF793FF16F07CFA034B93
:1013A00004461B6803B19847204610BD780A002107
:1013B00038B5274B0446D3F8A022D3F8A412013144
:1013C00006D1D3F8A8324FF6FF719BB28B423DD0C5
:1013D000D3073BD51E4DD5F8A422D5F8A832C4F8C2
:1013E0000120A4F80530C3F3072363F03F03A37182
:1013F000D5F89032013323D0D5F8943201331FD081
:10140000D5F8983201331BD0D5F89C32013317D070
:1014100000200AF057FB98B9D5F89002D5F894123D
:10142000D5F89822D5F89C32C4F80700C4F80B1000
:10143000C4F80F20C4F8133001230020237038BDF6
:1014400010220021E01D14F0FFFEF5E70023F4E771
:101450000000FF0170B5274D102200210446D5F889
:10146000A06214F0F1FE10220021A01814F0ECFE8E
:10147000D5F8803201330BD1D5F88432013307D14E
:10148000D5F88832013303D1D5F88C3201330BD033
:10149000D5F88002D5F88412D5F88822D5F88C3298
:1014A00020616161A261E36100200AF00BFB08B9D1
:1014B000F3071CD40F4BD3F8902201320BD1D3F891
:1014C0009422013207D1D3F89822013203D1D3F804
:1014D0009C2201320BD0D3F89002D3F89412D3F8A7
:1014E0009822D3F89C3220606160A260E360002003
:1014F00070BD00BF0000FF0170B50C88C27CA6B2B1
:10150000C4F30E04931C058804F114021D44825A8E
:10151000ADB21A4443882A44013AB2FBF5F202FB09
:10152000054292B29342044B8BBF3340B343134303
:101530009BB20B8070BD00BF0080FFFF4A1E062AD1
:1015400008B50346084604D84FF4D1711520FFF7BB
:101550000FFA094A914202D940F2A311F6E711B9F4
:1015600003B1196008BD2BB11B680022C3E901213A
:101570001A1D1A600430F5E7FAFFFF7F10B5114B12
:1015800000EB41041A786389B3FBF2F303FB0223F7
:10159000013A1A44B2F5706F027928BF00231A4449
:1015A0008378B2FBF3F0194403FB1020091AB1FB56
:1015B000F3F003FB101313446FEA43436FEA534302
:1015C000638110BD7C0A0021124B10B5E0B15A783E
:1015D000022A04D040F22B111720FFF7C9F9032289
:1015E0005A70026812F0070102D04FF49871F3E7C5
:1015F0005C685A602244BDE81040026003F10C00B0
:101600009A60402214F020BE0122C3E901005A7002
:1016100010BD00BF7C0A00212DE9F041254E96F84F
:1016200001E00EF0FD0CBCF1010F04D040F24511B9
:101630001720FFF79DF991F80680B8F1080F02D93D
:1016400040F24711F4E7CF7997B345467B1D7268A6
:10165000022D4FEA430402EB430338BF02256A1E02
:101660006D421344C8F100022B408D884544013D72
:101670002A40B2F5803F02D34FF4A971D8E7BEF1FA
:10168000030F12D106EB80001C1BC56815B140F298
:101690005711CDE7C460A770228084F803C0087A90
:1016A00009682071080C2181E08007FB0233736018
:1016B000BDE8F0817C0A00212DE9F047364C6378C3
:1016C000012B65D0032B04D040F267111720FFF7E0
:1016D0004FF9D4E901329A4202D04FF4B571F5E7DF
:1016E000002325460F221E46994605F80C3B55F867
:1016F0002200013A58B190F804808178B8F1FF0FC8
:101700002FD180F804908E423CBFCEB20123511CF1
:10171000EDD103B126700F2640F6FF6955F826700B
:101720009FBB013EFAD2042300206370BDE8F0871E
:1017300055F82CE0BEF1000F06D09EF804A0C2457B
:1017400004BF9EF802E077440CF1FF3CBCF1000FAF
:10175000EEDA3944FF2907D903B126704FF48371BB
:10176000B4E794460027F1E70771CCE707EB4103A4
:1017700008F101083846A3F80A90FFF7FFFE5FFA68
:1017800088F1BB788B42F1D8CBE74FF00008F6E741
:10179000022360686370C9E77C0A0021F8B54FF640
:1017A000FF7305460380184B03EB8103D868B8B17B
:1017B00086780379B3FBF6F206FB1233DBB21946E7
:1017C0000A1D00EB4202B2F902705488002F09DBB7
:1017D0000131B1FBF6F206FB1211C9B28B42EFD117
:1017E0000020F8BDFF29FBD0C4F30E03C4782B8082
:1017F00024B94FF4D9711720FFF7BAF85380BDE828
:10180000F84015F0E4BB00BF7C0A00211D4B03EB40
:10181000810370B5DC68054644B3030404D54FF476
:10182000E0711720FFF7A4F80146204615F0B2FB3F
:10183000FF28014604D02046BDE8704015F0C7BB24
:10184000A078B5FBF0F300FB1353DBB219460A1D79
:1018500004EB4206B6F90260002E09DB0131B1FB50
:10186000F0F200FB1211C9B28B42F0D1002070BD22
:10187000FF29FBD08B4204EB42021CBF0023E37024
:101880005580D8E77C0A0021094B03EB8103014610
:1018900010B5DC68204615F07DFBFF28014604D01A
:1018A0002046BDE8104015F092BB002010BD00BFDF
:1018B0007C0A0021F8B5104B074603EB8103014673
:1018C000DC68204615F066FBFF28054611D0E68847
:1018D000238953EA064606D00146204615F077FBD9
:1018E00001463846B04720462946FFF747FE00200C
:1018F000F8BD0520FCE700BF7C0A002138B50E4B7F
:101900000446827903EB8203D86808B9052038BD04
:101910008278E1799142F9D24B1CE37100EB4103EB
:101920005D89B3F90A30002BF3DBA58015F04FFB7E
:1019300020600020EBE700BF7C0A002170B5044660
:1019400010F003000E4603D04F211820FFF710F8C7
:10195000FFF7F4FD054624B1034831460460FFF764
:10196000EDFD284670BD00BFC80A00212DE9F14FEA
:10197000DFF870B01E4607460D46DBF80030904693
:101980009DF828A09DF82C901BB961211820FEF726
:10199000EFFF52460921404615F083F94A4684B2CA
:1019A0000921304615F07DF981B2DBF800002144B1
:1019B00015F0C5FA386018B9286001B0BDE8F08F9D
:1019C00004445346414609222C60386815F022F938
:1019D0004B4609223146286801B0BDE8F04F15F0AA
:1019E00019B900BFC80A002170B50E46044615F0AB
:1019F0006BF90546304615F067F9044B2A18214665
:101A00001868BDE8704015F0BEBA00BFC80A0021D2
:101A1000014B186815F087BAC80A00211F2AF8B5CB
:101A2000044613460ED89200033222F00303B3F5A6
:101A3000803F2DD2184DACB1A00710D05F210920F6
:101A4000FEF796FFFF2B4FEA420204D9FF339A427A
:101A5000A8BF1A46E8E77C2AB8BF7C22E4E72970D1
:101A60006C602B8122F0030228230127120403FB60
:101A700001F06B680025120CEEB28E4200D3F8BD67
:101A800014B126181F705E60104401352833F3E747
:101A90004FF0FF30F3E700BFCC0A0021144A0021C9
:101AA00038B553681478C8B2844203D8AB210920F2
:101AB000FEF75EFF1846013128330578002DF2D07D
:101AC00000218170012412898161051D44709208F2
:101AD000C16100F12001446821F8022B994245F8C8
:101AE000044B1444F8D100234361037038BD00BF98
:101AF000CC0A00210A4B1B89B3F5FF7F4FEA930004
:101B000006D25A089B1A9BB2984238BF18467047B3
:101B1000B3F5EE6F01D8FF22F4E740F27263F3E70A
:101B2000CC0A00212DE9F8434B7880460C4602F0A0
:101B3000040602F0FB07D3B1DFB12E4BD4F80490BA
:101B40001D89B7BB0123AD084A46211D637004F10E
:101B5000280004F12003A761E76123F8025B9842A3
:101B600041F8042B2A44F8D10023636101E0002FDF
:101B7000E3D0FF23A370002E18BF0226A3191B7DFC
:101B8000032B03D1022F1CBF0136F6B2A319012289
:101B90001A7506F10C02002304EB860624F81230B5
:101BA0007268A3704046C8F80020A8F80430BDE869
:101BB000F883002114226170A01814F045FBB5F5DC
:101BC000FF7F0FD26B08ED1AADB209EB0502C4F826
:101BD00004902584A2606384C4F80C90A5842261DB
:101BE000E384C6E7B5F5EE6F4FF0FF03EBD940F2A3
:101BF0007265EAE7CC0A00212DE9F84305460C4658
:101C0000F7200521914615F04CF8061E22DB1DB980
:101C100006FB04F0BDE8F88315F0030703D0982114
:101C20001920FEF7A5FEDFF83480C8F81050A5B2E1
:101C3000A8F81460BBB29D42EAD9B8F814C04B466C
:101C4000D8F810000522F72107FB0C00013714F02B
:101C5000E1FFEFE74FF0FF30DCE700BFE00A0021D3
:101C600007B5CDE900230B4603490246081D15F0D0
:101C700006FB03B05DF804FBF80A002113B5064C1F
:101C8000CDE900230B46024604F1080104F10C00E3
:101C900015F0F5FA02B010BDF80A0021144B01222C
:101CA00000214FF0FF309A60C3F80012C3F8080318
:101CB000C3F80015C3F804259A60C3F808034FF46D
:101CC0008040C3F80015C3F8042503F5805341F69E
:101CD000F8720849C3F80825C1F88000BFF34F8F98
:101CE000BFF36F8FC1F88001C3F80825704700BFAC
:101CF00000E0004100E100E08C463022064B00B5D8
:101D00000CF8032B8E4607CBCEF80300CCF804105A
:101D1000CCF808205DF804FB140B002110B5154C1D
:101D20000FF0E4FF0FF09CF90021636A608C984784
:101D3000237E9BB9104B628C93E803000BF068FD87
:101D4000E36A18880BF08EFC636B94F8301094F8FB
:101D500031009847002384F8383010BD94E807001C
:101D600004F10C0383E80700044904F1190017F09B
:101D700030FDDFE7080B0021300B0021F91C0001CA
:101D8000034B93F8383003B97047FFF7C7BF00BF64
:101D9000080B002140F21F41062008B5FEF7E8FDC0
:101DA00008B5094B93F83820022A07D1DA7A42F0B5
:101DB0000102DA72BDE80840FFF7B0BF40F25321DC
:101DC0002720FEF7D5FD00BF080B002138B5364DA2
:101DD000044695F828300BB1C2071FD4012924D836
:101DE0002B6C2046984700B395F83000E8B995F879
:101DF0002820E2B18CB995F84430D806C3F300141A
:101E00002ED4EB6C23B30123AAB16A8F910713D5AB
:101E1000EB6BD878023818BF012038BD6B8F1B07D9
:101E2000DCD5EB6BDB78022BD8D1012038BD002C40
:101E3000E1D1204638BD6A8F002AF6D16A6D10784C
:101E400003EA10102043C0F1010000F0010038BD8A
:101E5000B5F85030B3FA83F35B09002AEBD0D4E72E
:101E6000E96B0B7803F00303032B02D1CB78022B31
:101E700018D0A86C14F0BAFF48B9EB6B1B7803F0CC
:101E80000303032B06D195F828200446B9E795F8FB
:101E90002820B6E709F0D8FD80F0010095F8282049
:101EA000C4B2AEE70024ACE7080B0021F8B5234C20
:101EB0000646E56A636D95F8A42005F1900794F84D
:101EC0005C00A3650AB1031DD8B2FF2895F87D1008
:101ED00004D11EB995F87C30994202D00FF082FAF5
:101EE0003A7D22B3206E10F015F894F82830216E58
:101EF000003BA06D18BF012384F88030D7E91E2372
:101F0000C4E91E230FF04AF846B995F87D30033B2B
:101F1000012B94BF2820002010F062F895F87C1067
:101F2000002010F0C1F8022384F83830F8BDA06D0D
:101F30000FF0F0FF0FF094F8E6E700BF080B002168
:101F40002DE9F041394C82B006460F4694F83830FE
:101F5000E56A012B5FFA83F805F190055ED12B79D4
:101F60006BB1638F0021042043F004032971638760
:101F7000636A984794F828300BB185F80680E16BC6
:101F80000B7803F00303032B31D04B7863B30223A8
:101F9000AB722B7DDBB194F82830003B18BF0123D6
:101FA00084F88030D5E91E23C4E91E23E36A94F83F
:101FB0005C2093F87D30013BDBB2032B33D81C4906
:101FC0000020CB5C009001201A490EF07DFF012F0C
:101FD00005D126B931463046FFF7F8FEC8B102B048
:101FE000BDE8F041FFF79ABE0123AB72D1E7AB7AAF
:101FF00063B9638F022043F002036387636A9847E3
:10200000E16B0B7803F00303032BBED10323AB7208
:10201000BFE702B0BDE8F041FFF748BF40F2A4417E
:102020002720FEF7A5FCFFF7B5FE00BF080B002137
:10203000A4670201700B002170B5804C002382B0B0
:10204000E56A8DF8053095F8A42005F1900694F81E
:102050005C300AB10433DBB2FF2B11D180B995F8A3
:102060007D3095F87C108B4202D0FF200FF0BAF93A
:10207000B37A032B00F2DD80DFE803F0051F8171E6
:1020800095F87C10F1E794F8C2306D48ADF8063051
:10209000A5F86C3009F0B2FC002840F095800DF1F5
:1020A00005020DF10601A06C14F036FEE06320B1CC
:1020B00096F85130002B00F09E80624B1846E36387
:1020C000F37ADB0003F00802037803F0F303134311
:1020D000327B920002F00402134303F0EF0203F09C
:1020E0000303032B027002D1C378022B11D0A06C22
:1020F00014F07CFE48B9E06B027802F00303032B76
:1021000007D009F0A1FC00286ED1E06B027842F004
:1021100010020270F37C13B14378002B41D10FF011
:10212000F9FE0EF09DFFE66B0AF09CFC20B13378BF
:1021300003F00303032B5AD095F87D1001200FF014
:10214000B3FFE26B012340491088927884F8C430D1
:10215000A4F8440084F838308A7002B070BD384862
:1021600009F04CFC00285AD0E06BC3781B2B14D12B
:10217000012105F110000FF065F9E06B0DE0B5F8F5
:102180006C300DF105020DF10601A06CADF80630C2
:1021900014F0C2FDE063002846D0012384F8C33068
:1021A0008EE7206E0FF0B6FE94F82810206ED6E968
:1021B0001C23B1FA81F6E16B7609C4E91E2384F889
:1021C00080600EF0EBFEAEE7638F4FF48070E16B42
:1021D00043F48073626A638790470121E06B7171F9
:1021E000C3781B2BD9D1C4E7E06B027891E70120BB
:1021F00010F034FFA0E79DF8053043B1BDF806109C
:1022000017F0ABFA0123E06B84F8C33058E7038082
:1022100001218370E06B17F0A5F9E06BEEE740F267
:10222000FD212720FEF7A4FB40F2F3212720FEF733
:102230009FFB40F20B312720FEF79AFB080B002191
:10224000440B0021980B00214C0B00210D4B0E4A32
:1022500070B50E4C1A6094F838301BB1E12127207C
:10226000FEF786FB03F0FF0206460D4622760BF0D2
:10227000C7FA012104F1900017F074F9666525662C
:1022800070BD00BFA4000021882B0001080B0021B5
:10229000074A10B592F8383013B10C24204610BD0F
:1022A00003F0FF0414760BF0ABFA204610BD00BF1C
:1022B000080B0021024B012283F8C520704700BFA4
:1022C000080B00212DE9F04184B0BC4C02AD85E83B
:1022D000030094F838100A98002940F0A081002BE0
:1022E00018BF002A00F09B81B0FA80F1490900284C
:1022F00000F09581236404F12803606384F8C5101D
:1023000084F8301084F8C61084F8311084F8C410B2
:1023100084F8C31061876184626295E8030083E8F2
:102320000300E56A0FF0C2F80EF09AFE95F98000FE
:1023300005F190060FF0C6F9A86B0FF0CFFD286AE3
:102340000FF0C6F996F824000FF0CCF994F8287035
:10235000EA6941F64B53002F00F0B6809A4200F232
:1023600028814D200EF0BAFF01200FF01DFB7321D4
:1023700095F87D2001200FF039FB914B18680FF084
:10238000B3FDD5E90523A264C4F8C83095F88B30B5
:102390003BB9D5F8843023B1F18F32898A4200F0FD
:1023A0002881D6F88410D6F88C30864FD6F8800075
:1023B000D6F888200FC7D6F8903094F82810C4F8C3
:1023C0008130D6F89430C7F80D30002940F0BB803A
:1023D000E36A93F89E20263A012A40F2848093F81B
:1023E0009F20262A7FD093F87C70032F08BF0427F4
:1023F00005F144083946404617F057FA394616F0B9
:1024000024FDB5F85030024695F87D1040469342C1
:1024100028BF134684F8C23017F014FA95F87D10DF
:1024200096F814800429B5F8587008BF032116F0F7
:102430000CFDB8F1000F01D1043080B2B84228BFC2
:102440003846C7B284F8CC700AF00CFB10B12B2FC1
:1024500038BF2B2794F8280084F85C70002857D1E7
:10246000F37CDBB1012395F87C1084F880300139CE
:10247000D6E91C23C9B2C4E91E23EA6941F64B53CD
:102480009A4298BF0420032900F2CE8000224E4BCE
:102490000092FB225B5C4B490EF016FD0120FFF71A
:1024A000CBFD002396F82400C4E90033A360D5F8DF
:1024B0008C302A8831892071618022800BB1012201
:1024C0001A6004B0BDE8F0819A427FD84D200EF02A
:1024D00005FF38460FF068FA7D2195F87C20002032
:1024E0000FF084FA49E793F87C7093F84232002B9E
:1024F0003FF47EAFFA1E012A40F28880DA1E012ADC
:1025000040F28480012F72D0012B70D002276FE738
:10251000337DA3B195F87D100120013984F8800046
:10252000C9B2D6E91E230329C4E91E237CD8264B51
:102530003A465B5C0021009122490EF0C5FC012067
:10254000FFF7B4FCADE7E26A92F89E30A3F12600F3
:10255000012827D992F89F70262F23D0A3F12100BC
:102560001346012801D8242F4AD100293FF43BAF5C
:10257000242F7FF438AF92F84E3192F87C7092F8A5
:10258000752013405A0741D413F0010240D19B0734
:102590007FF52EAFFB1EDBB2012B37D9012F18BF01
:1025A000022725E792F8D63292F87C70002BA1D151
:1025B0001EE796200EF092FE9C21D9E6080B002122
:1025C000A4000021700B0021A467020196200EF0E8
:1025D00085FE164B95F87C2003EB42039988144B3B
:1025E00001F5FA71A3FB013189097D3177E70127F4
:1025F000FEE6B5F888100A44F28701221A60D0E698
:1026000092F84E3192F87C705907BDD50427EFE659
:10261000FB1EDBB2012B8CBF17460427E8E640F215
:102620006F112720FEF7A4F9FFF7B4FBA46702019E
:10263000D34D621008B5124B93F8382092B193F83D
:10264000282022B993F83830012B14D108BD93F813
:102650003820022A0AD1DB6AD3F81802BDE8084004
:102660000FF090BCBDE80840FFF758BB40F23521A1
:102670002720FEF77DF940F231212720FEF778F977
:10268000080B0021FFF74ABB014B1876704700BFCB
:10269000080B0021014B93F8C4007047080B002180
:1026A000034B93F8C30010B9588CC0F30030704747
:1026B000080B0021024B588CC0F3C020704700BFAC
:1026C000080B0021014B93F8C6007047080B00214E
:1026D0002DE9F0411E4F820782B00546FC6A0E4686
:1026E00004F1900411D4EB070CD5217BD4E91E3200
:1026F000013342F100020129C4E91E320CBF00235C
:102700000123237302B0BDE8F081FB6CDBB1B7F8A5
:1027100050201846B96D033291F8018013F01EFD68
:102720000DF1020201A9B865D7F8C80014F0F1FB59
:10273000019814F0D8FB012230604146D7F8C80058
:1027400014F09EFBCFE740F295412720FEF710F9E9
:10275000080B00212DE9F04F0023B74C87B0064647
:10276000E56A8846CDE9043394F8383005F19007DE
:10277000022B40F0F781638C13F0400106D1636AAD
:1027800040209847638C43F040036384002E5BD065
:102790003B7D002B40F02B81D4F858B09BF80130E2
:1027A00099B2A4F85010002940F039810023E36465
:1027B0009BF80090638CF97AC9F3800243F40073AC
:1027C0009142638400F0D380E26A94F8280002F119
:1027D000900A9AF80A20EAB1022A00F098810021B2
:1027E0008AF80A1020B19AF80630002B40F0858153
:1027F0009AF80530002B40F031819AF80B30D4F86C
:1028000058B0012B0CBF002301238AF80B30638CD6
:102810009BF80090397BC9F3C00243F400634FF08A
:10282000000A9142638400F0A9804FF000090AF089
:1028300019F9F0B19BF8003003F00303032B18D112
:10284000012010F00BFC14E03A7D002A40F0EF80EC
:1028500043F480634FF00009638494F8C630013379
:1028600084F8C63095F87D30033B012B40F2B180EF
:10287000CA46FB7C03B394F8283095F87C10B3FA71
:1028800083F3E86901395B09C9B284F8803041F605
:102890004B53984294BF042000200329D7E91C23FE
:1028A000C4E91E2300F263810022644B0092FB22E4
:1028B0005B5C63490EF008FBB8F1000F08D194F897
:1028C000C6100120FFF782FA0546002800F0BC8000
:1028D00001250FF023FCB9F1000F38D1BAF1000F38
:1028E00008D094F82830002B78D1B4F8093001339F
:1028F000A4F8093086B3B4F805300022013384F817
:10290000C620A4F805304F480AF09AFE049830B16A
:1029100014F0E9FAE16A0022027209F0FFFF059B58
:1029200033B1E16A00221A720C22059809F0D6FF31
:10293000C5B9638C1B0607D4636A29468020984773
:10294000638C43F08003638407B0BDE8F08F05A972
:102950000220FFF7BDFEC1E7B4F807300133A4F849
:102960000730D0E7FFF7DAF907B0BDE8F08F397B21
:10297000C9F3C002B24691427FF457AF09F0030198
:10298000E26A032902F1900265D143F480530120E9
:102990005946039263844FF00009638F107143F02E
:1029A00001036387636A9847D4F858B0039A137B8E
:1029B000013B18BF012313739BF80130002B3FF438
:1029C00036AF936F01339367D36F43F10003D3673F
:1029D0002DE70120CA4610F041FB4AE7B4F8053064
:1029E000B4F807103A890B43134383D07DE70EF008
:1029F0007BFB0EF05DFBD4F858B000287FF4CEAE20
:102A00009BF80110002946D09BF800303A7BC3F3B5
:102A1000C0039A4200F08E8089B2A4F85010D4F816
:102A2000C80014F004FAD4F858B0E064C0E60EF020
:102A300095FB638C0CE700BF080B0021A467020123
:102A4000700B0021300B0021FFF7F6FAB9F1000FEF
:102A50003FF444AF7BE709BB8946A8E74FF0000984
:102A60008AF8059008F0DAFF002800F08280638F72
:102A70004946082043F008036387636A9847DAF8F9
:102A800070300133CAF87030DAF8743043F1000363
:102A9000CAF87430B1E6A4F8501087E69BF801102C
:102AA0000029D9D043F4805392F8149003926384A0
:102AB0000EF02EFC042894F8CC30039A07D1B9F11B
:102AC000000F14BF1B211F218B4228BF0B46D4F8D7
:102AD00058B09BF80110994232D8E36C002B3FD0DC
:102AE00094F8C530002B39D0636A002120204FF0C4
:102AF00000099847D4F858B099E6638F10208AF8F7
:102B0000061043F010036387636A984770E604A9D0
:102B1000A06C14F023F988B3DAF8703094F8280028
:102B20000133CAF87030DAF8743043F10003CAF8A0
:102B3000743054E6012384F83130FFF7EFF803E7EF
:102B400094F8303001204FF0000943F0100384F86E
:102B5000303010F083FAD4F858B068E6B14626E772
:102B6000994664E64FF4A3612720FDF701FFFFF7C4
:102B700011F940F225412720FDF7FAFE40F20E41FF
:102B80002720FDF7F5FE00BFA11D0001552700011C
:102B9000411F0001811D00012DE9F843002800F0CC
:102BA000E3800446072900F2D380DFE801F0AB257B
:102BB00025A7D1209ECD0146204617F07EFDD4F8F2
:102BC0004C3100F1EC059D4240F2C680E81A032129
:102BD000402838BF402012F029FC0346C4F84C516D
:102BE00020461D4617F028FE002D00F09C80204650
:102BF000BDE8F84317F021BE17F0A0FD0023D4F87C
:102C00001C2105460E4684F8483184F85131BAB18A
:102C100050EA010314D0CA00C30042EA50721B1AE2
:102C200062EB0102D4F838115B18D4F83C1142EB86
:102C30000102D4E95601834272EB0103C0F0928095
:102C4000022304F5A47784F85031384611F03AFE97
:102C5000002800F08D8094F8683103F0FF01002B0C
:102C60006AD16FF00043D4E958029A4208BFB0F12C
:102C7000FF3F12D02046D4E9569817F01EFDD4F835
:102C80006031EC30D4F86421B3EB090362EB080245
:102C90001B1A62F10002002A4BDB394694F8180136
:102CA00011F0FCFE00286DD0D4E95601D4E94C3275
:102CB000834272EB01071FD255EA06071CD0C01AE7
:102CC000334661EB02012A4613F08AF905FB01F154
:102CD000A5FB005300FB0616D4E94C2133445519DB
:102CE00043EB0103C4E94C5306E090F8180111F0DE
:102CF000C1FD002384F84031BDE8F883BDE8F84306
:102D00000FF020BA0BF06CFDD4F84C01DC3812F057
:102D1000EBFA90B3204617F04FFD00283FF44BAF7D
:102D2000204617F089FDD4E95623C4E94E23BDE8B7
:102D3000F88320460BF05CFD94F8180111F09AFD21
:102D4000002384F84031AFE7F4213020FDF710FE76
:102D5000F8213020FDF70CFE2046C4F84C5117F046
:102D60006BFDE0E701236CE7D7213020FDF700FE83
:102D700040F292613020FDF7FBFD40F251213020FE
:102D8000FDF7F6FD40F296613020FDF7F1FD00BF42
:102D90002DE9F04F044689B000201F460E469146AB
:102DA00094F87DA0049015F0F5FB94F800320B2BFD
:102DB00000F21883704A94F89F8032F8135089F01B
:102DC00001032844029385B2B9F1000F1AD0B4F878
:102DD000901204F51879B4F898B0711AA6EB0B0BA1
:102DE00009B20FFA8BFB0029C0F24982384694F8E9
:102DF0004432032B00F21083DFE813F0BD0183019E
:102E0000C4003A0094F84432032BE0D1B8F10E0F1D
:102E1000DDD1B4F8D432B342D9D1B4F81C22204663
:102E2000B4F892321344C4F84032D4F84C32C4F8A7
:102E30003832E369C4F83C320CF0AEFED4F8DC3230
:102E4000E2699A4205D004F1280017F0B6FFD4F8E1
:102E5000DC32E361D4F8D832E363B4F8D632A4F8B4
:102E60004030D4F8E0326362022384F84432AEE7A3
:102E7000E36903FB01F20492002F00F00A82B4F828
:102E80001C52002D40F0058284F85B52D4F84CC2ED
:102E900094F89E300CFB1121262B049100F008823F
:102EA00094F89F30262B00F0038200283CD0002DA0
:102EB0003AD1D4E9A0E0D4E99E237245834180F061
:102EC000A68294F87D00C31E012B40F280820391FC
:102ED0000FF076FB4AF2A13CD4F88032274D8444AF
:102EE000A3F1830194F87D00A5FB0C3CA0F1030E37
:102EF000D4E99E23BEF1010FA1EB0203039919440B
:102F0000A1EB9C1140F27D8203910FF059FB00F27E
:102F1000E730D4F84CC20399A5FB0030B4F81C523A
:102F20008009014410390491AB44AAF103030CFB5E
:102F30000BFBDBB20BF1300B012B4FEA4B0B40F2DA
:102F4000FF8150460D4D0FF03BFB4AF2A133034485
:102F5000A5FB03239D0950460FF02AFB0BF17303D9
:102F600041F64B521D44E36928449342044D2860C6
:102F700040F22182049A6FE0B4670201D34D6210DF
:102F8000D80B0021E36B2946D4F83C02184417F013
:102F900064FF2946C4F84802E06917F05EFF41F675
:102FA0004B53E26994F87DA09A42C74D98BF023016
:102FB000C4F84C0250460FF003FBAAF1030A4DF689
:102FC0004171BAF1010F01442046A5FB013194BFC4
:102FD0002823002303EB9111803116F0CEFCB4F8C6
:102FE0001C3213B9002F40F0AD81D4F83C32E26BB3
:102FF00094F87DB01344D4F84802ABF103011B1AD6
:10300000C9B20493D4F838320129D4F84022B4F874
:1030100040A002FB03050AF1730A05F130054FEAEF
:10302000450540F23D8158460FF0CAFA4AF2A133F5
:103030000344A548A0FB03239B095846039355442A
:103040000FF0B6FA039B049A1D44A04B2844186065
:10305000012384F84432E369D4F84C52D4F888123E
:103060005D1B6FF4B3731D44D4F88C32854228BFC6
:103070000546891804F1440043F10003C4F81852CE
:10308000C4F87012C4F87432002384F8603216F069
:10309000D7FB2844A4F89062C4F86402D4E99C23C6
:1030A000C4E9A2230BF0C0FF20B1D4F864321E3370
:1030B000C4F86432B4F8081200238E1B84F8683216
:1030C00036B29E4202DD022384F86832B8F10E0F58
:1030D00000F0FE80002F40F0FE8094F84432002B78
:1030E00040F01981494694F85C0211F0D7FC0028A1
:1030F00000F07D81029B84F85832002009B0BDE8C1
:10310000F08FD4F84C02E269D4F84052B4F81C3283
:10311000121AB4F840A09B4402FB01F1D4F84832E3
:10312000EA430AF1730A049130339344D4F8382205
:1031300002FB053594F87D20D31E00FB0B55012BB7
:103140004FEA450540F2AE80104603920FF038FA80
:103150004AF2A13303445C48A0FB0323039A4FEADD
:10316000931B554410460FF023FA584B5D44049AC4
:103170002844186081E094F87D1094F8160215F048
:103180008BFE8246E06B2946DFF83CB1504417F0D5
:1031900064FE2946C4F84802E06917F05EFEE26961
:1031A00041F64B5305A99A4298BF0230C4F84C022D
:1031B00006A80EF0BBFF059B0093DDE90623D4E9CA
:1031C000A20112F08DFB94F87D300546184603935A
:1031D0000FF0F6F9039B4DF64171033B0144204685
:1031E000012BABFB013194BF2823002303EB91118A
:1031F000803116F0C2FBD4F89432E26B94F87D0073
:10320000049303920FF0DCF94AF2A133039AC31836
:10321000D4F84802ABFB0331049B933B13441B1AC5
:103220005344B4F840A05B1B00F130050AF1950A45
:10323000A3EB91136D00049394F87D30DA1E012AFC
:1032400033D9184603930FF0BBF900F52340A130A2
:10325000ABFB003B039B4FEA9B1B184655440FF00A
:10326000A7F9049AD4F894325D441849D31A284433
:10327000B3F5A07F0860C0F0BF80E369ECE60023EF
:103280005946012084F85B32D4E99E23C4E9A22385
:10329000ADE594F85B52002D4FD00C490868DBE691
:1032A0006523CAE64FF0650B5BE74FF0650BD4E78B
:1032B000B4F8D432F31A1A043FF5F7AD94F8D732C4
:1032C000002B18BF9A46F0E5D34D6210D80B0021B1
:1032D000002F3FF407AFB4F83022CAB1B4F832027D
:1032E00094F8341200FB011101308A427FF7FAAEE4
:1032F000002B3FF4F7AE0023A4F8320284F86832C2
:1033000009F0B6FB00F00700013084F83402E9E66A
:10331000A4F83222E6E6D4F84C324846E169C91AEC
:1033200015F062FD83B2002B3FF4DCAE129A01204F
:10333000002A3FF4E3AE1380E0E6B4F81C52A5E5A2
:10334000652508E6E26BD4F83C3294F87D0003EB87
:10335000020A0FF035F94AF2A13394F87DB0AAF1D0
:10336000930A0344ABF10301D4F84802A5FB0323FD
:10337000C9B2D4F88022AAEB000A9B090129924421
:103380000393D4E99E23AAEB020A29D958460FF0E9
:1033900017F994F87DB000F2E732D4F84802ABF1A7
:1033A0000301A5FB0235C9B2AD09039BAAEB0302D9
:1033B0002A44049226E618462A4604AB594615F0DC
:1033C00088FD049A84F85B02E369286844E6AEF15C
:1033D000E80E3C20D4E99E23AEEB020E7144A0E53A
:1033E0003C25E2E740F2B5310620FDF7C1FA40F294
:1033F0007B513020FDF7BCFA40F2C6413020FDF78A
:10340000B7FAB4F81C523C20D4F84CC289E540F21B
:103410001A513020FDF7ACFA40F232513020FDF75E
:10342000A7FA00BFF0B585B0002800F0158104466A
:10343000072900F20081DFE811F09200080008007F
:103440007B00FE0080008800FA000FF005FED4E942
:103450009E23801A61EB0301012871F10003C0F281
:103460000D816FF00102002382428B41C0F2018185
:10347000E3690BB1B0FBF3F394F89F200E2A00F040
:10348000CF80B4F89810B4F856220B449BB2D11AEE
:103490000D0454BF531C01339BB2A4F8563294F868
:1034A0005932B4F8561223B9B4F80C328B4200F0FA
:1034B000C680B4F8D40002ADB4F89830B4F89222C3
:1034C0000344B4F8D20001326F4E013BA4F89222BB
:1034D0001B1A9FB2336853B101390022204689B2CA
:1034E0009847B4F85612014489B2A4F856127B1AD0
:1034F00018046ED40023204600951A46FFF748FCB6
:1035000000284AD1D4F884303BB3B4F8CE20B4F8C4
:1035100056329B1A1BB2002B1FDDB4F888100B44E7
:10352000013BB3FBF1F303FB0123A4F8CE3014E01D
:1035300005B0BDE8F0400EF005BE01200FF08EFD95
:1035400005B0BDE8F040FFF79DB890F84432042B79
:1035500040F08B80002380F8443205B0F0BD90F835
:10356000583253B3B0F85632B0F8982093426BD02B
:103570009A1AA0F89830A0F80E222046D4E99C238D
:10358000C4E99E230CF0F6F994F81332002BE4D032
:1035900005B0BDE8F04017F0C6BA012860D1B4F814
:1035A0005612B4F80832CA1A12042FD4BDF80830E3
:1035B000194489B2A4F856128CE7B0F85432B0F826
:1035C0009810B0F854225B1AA0F89820A0F80E3298
:1035D000D3E794F8A220012328460394002A8DF80B
:1035E00008300CBF3E23082384F8C13009F0AAFD3F
:1035F000204617F09AFA002394F85C0284F84432CB
:1036000011F038F9202384F85C32A6E7BDF80820D1
:10361000114489B27A1A12F4004F18BF1946C9E74B
:10362000B4F85612013189B2A4F8561241E7CB2101
:103630003020FDF79DF9CF213020FDF799F90131B8
:1036400089B2A4F8561234E7B0F80C22D31AA0F8C5
:103650009820A0F80E3290E7A6213020FDF788F9D7
:1036600040F254613020FDF783F9C5213020FDF789
:103670007FF940F207613020FDF77AF940F20661E8
:103680003020FDF775F900BFA80000212DE9F043B7
:10369000D0F81C31002683B0054680F820610F4623
:1036A000D0E9568983F8162280F840610121D0F8CC
:1036B0001C0108F0EBFDD5F81C413246314620468E
:1036C000C4E99E8995F81831C4F8947284F85C3284
:1036D000334684F84462A4F89062C4E9A289009653
:1036E000FFF756FBD0B90123C4F84002C4F83802F2
:1036F00084F84432A4F85602A4F8540284F859021B
:10370000B4F89830A4F89202013BA4F898300EF077
:1037100077FB03B0BDE8F04310F036BF40F2F31181
:103720003020FDF725F900BFD0F81C01704700BF1D
:103730002DE9F043002385B00322FF26CDE90033B5
:103740008DF806206846FEF7D9F8044620BB009D98
:1037500095F84031002BF5D085F8686101212846A5
:1037600017F06DF895F84031002BEBD095F8180163
:1037700011F0F0FB95F8180111F07CFF95F8180195
:1037800011F078F800283CD085F840416846FEF7F3
:10379000B5F804460028DAD0DFF87C800123002544
:1037A00002264FF6FF7788F804301AE0029BE3B157
:1037B00093F85C22202A18D01888B8421BD0022126
:1037C000FEF762F8814608B390F85C0211F052FFF0
:1037D00099F85C0289F8444211F04CF8202389F8EA
:1037E0005C32CDE902558DF80E6002A8FEF786F82E
:1037F00004460028DAD0002388F8043005B0BDE87C
:10380000F08340F2DF113020FDF7B2F840F22B11C7
:103810003020FDF7ADF800BFD80B0021044B00228B
:1038200042F210715A71D9801A71FFF781BF00BF3F
:10383000D80B00212DE9F84390F84031002B76D1C8
:103840000446884601465648154603F0FF0710F027
:10385000E5FF202806466AD05822394604F58C70C8
:1038600012F0F2FC84F81861C4F81C81FF2384F87C
:103870004031B8F1000F06D009F012F900F007004E
:10388000013088F8340202234FF00008A4F85031C8
:1038900084F8488117F0E9FA00F1BC062046B6B278
:1038A00016F08AFF002846D014F074FE00F5CD61B2
:1038B00028464FF0010989B217F0CFFA2844C4F81E
:1038C0004C010FF0C9FB3018A4F8268041F100012B
:1038D000C4F8580184F820912046C4F85C1116F011
:1038E00081FF002845D0A5F59D654946204616F084
:1038F000E4FE2D1AC4F824514FF0FF326FF000435C
:10390000C4E9582304F5A47194F8180111F0C6F81D
:1039100000283FD020460021D4E95623C4E94C2397
:10392000C4E94E2316F08BFF3846BDE8F8830C2718
:103930003846BDE8F8830146204616F0BEFEDFF8A3
:103940006480EC30C4F84C01B8F8060008B1E08C93
:10395000B8B906440FF080FB361841F10001C4E904
:103960005661002DC8D0AE1941F10001C4E958617B
:10397000C8E7EC3D484616F0FFFF2D1AC4F8245165
:10398000BAE709F08DF8B8F80630B0FBF3F202FBA5
:103990001300DEE740F2C1113020FCF7E9FF00BF61
:1039A000992B0001D80B002190F840310BB9002071
:1039B000704710B50446FF2380F86831012116F0E6
:1039C0003EFF94F840310BB9002010BD94F8180167
:1039D00011F0C0FA94F8180111F04CFE94F8180197
:1039E00010F048FF20B1002384F84031002010BDC2
:1039F00040F2DF113020FCF7BBFF00BF014B5871D4
:103A0000704700BFD80B002190F8682182B910B52B
:103A100002F0FF0490F8202112B90122104610BDD7
:103A2000D0E949319942F9D90AF0E2FE2246F5E798
:103A300000221046704700BF10B504460DF08CFC04
:103A4000074B9A68824208D3E16941F64B52914292
:103A500003D9187980F0010010BD002010BD00BF0F
:103A6000D80B002140F20B2108B515F08EFFB0F500
:103A7000296F28BF4FF4296080B208BD90F8133237
:103A8000002B73D1F0B503F0FF0590F8443285B0F8
:103A90000446032B01D005B0F0BD0FF0DDFAD4E9E8
:103AA0009E23801A61EB0301012871F10003F2DB10
:103AB0006FF00103834275EB01035ADBE369B4F84D
:103AC0009820002B53D0B0FBF3F080B20132B4F851
:103AD0000C32104480B2A4F85402B4F854229B1A59
:103AE0001BB2002BD7DD94F85C0211F033FA0028EA
:103AF000D1D0FF2384F85932B4F898500DF10E0656
:103B0000B4F8D420B4F8D23015441F4F013DED1A5B
:103B10003B68ADB263B1B4F85412002220460139BB
:103B200089B29847B4F85432184480B2A4F85402C9
:103B3000B4F85432EB1A1B04ADD4B4F85412002379
:103B40000122204689B20096FFF722F90028A2D070
:103B5000012813D1B4F85432BDF80E2013449BB29F
:103B6000A4F854323B68002BD5D1E1E770471846E2
:103B7000ACE740F2AF513020FCF7FAFE40F2F651CC
:103B80003020FCF7F5FE00BFA80000212DE9B0436E
:103B9000044682B0062900F29780DFE801F0041D98
:103BA0000A1A232A6D004B4B1B7903F0FF02002BEE
:103BB0007CD0042384F844320EF022F910F0E4FCA7
:103BC0000023B4F89820A4F89232A4F8562284F87E
:103BD000593202B0BDE8B083032380F8443202B00A
:103BE000BDE8B0830DF0DCFBC4E9A00102B0BDE884
:103BF000B08390F87D30C569033BD0F84C12DFF8F4
:103C0000D480012B98F8053094BF4FF4BD794FF460
:103C1000A9798D428CBF6D1A00251BB9436C9D425A
:103C200028BF1D46D4F8187204F1440015F008FEB0
:103C30000744022011F0A6FB0221ED1B25EAE575E1
:103C4000854228BF0546284611F0F0FB00B92F44F5
:103C50004A463946204615F07DFEE269D4F818320E
:103C6000C8F80800D01811F03FFB0028B1D140F28D
:103C700079313020FCF77CFE90F87D502846033DDA
:103C80000EF09EFC4DF641710246134B012D20466D
:103C90001144A3FB013194BF2823002303EB9111AE
:103CA000803102B0BDE8B04315F067BEB0F80C1229
:103CB00001230092FFF76CF800283FF47DAF40F23B
:103CC000CA613020FCF754FE40F265713020FCF7E9
:103CD0004FFE00BFD80B0021D34D6210012A70B5F2
:103CE000064609D0022A14460D461ED04AB140F2BB
:103CF0008F713020FCF73CFE0DF02EFBC6F89402CD
:103D000070BD0DF029FB224601462846FFF7BEFC98
:103D100032460F4995F818010FF08AF90028EFD1C3
:103D20004FF4EF613020FCF723FED0F8941201220B
:103D30002846FFF7ABFC3246054995F818010FF00D
:103D400077F90028DCD140F289713020FCF710FEB1
:103D500025340001F8B5044651B1012960D1002392
:103D600080F820310EF04CF8BDE8F84010F00CBCA3
:103D7000C58C002D4CD12046D4E94C7616F0DEFCE3
:103D800040194FF0000341F10001C01984F8483197
:103D90004FF0020346EB0101C4F85801C4F83001AA
:103DA000C4F85C11A4F85031C4F8341194F86831A7
:103DB00003F0FF01002BD5D16FF00043D4E9580286
:103DC0009A4208BFB0F1FF3F0CD104F5A47194F8FA
:103DD000180110F063FE0028C4D140F2E9613020E0
:103DE000FCF7C6FD2046D4E9565616F066FCD4F81A
:103DF0006031EC30D4F864215B1B62EB06021B1AC5
:103E000062F10002002AE0DA20460AF0F1FCA9E79C
:103E100008F02EFEE58CB0FBF5F303FB1505AAE7D1
:103E200040F29F713020FCF7A3FD00BF90F84001E5
:103E3000003818BF01207047014BD880704700BF81
:103E4000D80B002106220B4603F8032BB0F809C05B
:103E5000C27AA1F803C09A70704700BF18230B7094
:103E6000704700BF40F2A921322008B5FCF780FD61
:103E700070B5002844D0437A04460E467BB3002137
:103E80004089FDF701FD054600283ED0008807F077
:103E900075FD00212888FDF70DFD00283AD113217A
:103EA000334604F10902293403F8031BD2F800C099
:103EB000103252F80C5C103352F8080C52F8041C03
:103EC000A24243F810CC43F80C5C43F8080C43F8CA
:103ED000041CEBD1107800221870B27170BD036D14
:103EE000D0F80E20C3F80320428AA3F80720427BB3
:103EF000036D12F0FD0F14BF012200229A70CEE76D
:103F000040F2F2213220FCF733FD40F2FE21322054
:103F1000FCF72EFD40F202313220FCF729FD00BFF4
:103F2000044B00221B68A3F8BA2083F8BC2083F856
:103F300070207047E40B002108B508F063FA034BCA
:103F400018700DF0D3FE032008BD00BF1000002143
:103F500008B508F057FA024B024601201A7008BD56
:103F60001000002138B50D4D2C6894F8893063B9E4
:103F700000230121204684F87010A4F8BA3084F898
:103F8000BC30BDE8384005F005B90EF073F80CF010
:103F900007FF002384F889302C68E9E7E40B00214F
:103FA00038B5114C002003F08BFA256803F01CFA99
:103FB0002368E867D86F60B103F052FA70B10DF072
:103FC000A9FF00200EF00CF82368042283F870206B
:103FD00038BD40F2B6413220FCF7CAFC4FF497617D
:103FE0003220FCF7C5FC00BFE40B002108B508F047
:103FF00009FA044B024600201A7003F0B7FB0120B7
:1040000008BD00BF1000002170B53D4C0646236876
:1040100093F87020032A34D093F87020042A30D00B
:1040200093F854309B0731D16568002D4FD0236839
:1040300093F85420002A40D06EB3284615F05BFA5E
:1040400018B9284615F072FA20B3236893F8702047
:10405000022A4BD993F87020082A4CD893F8701094
:104060002846A268274B12690B4452F82330984720
:104070000C2827D8A368DB68BDE8704053F82030CF
:104080001847D86F03F0ECF90546CEE703F000FAC5
:104090000546CAE7236893F87020022A1CD993F8D2
:1040A0007020082A1DD893F87010A268154B526929
:1040B0000B4452F823309847DAE741F2913132202D
:1040C000FCF756FC41F2A4313220FCF751FC41F2DE
:1040D0008B313220FCF74CFC41F271313220FCF77D
:1040E00047FC41F272313220FCF742FC41F21131BF
:1040F0003220FCF73DFC41F212313220FCF738FC53
:10410000E40B0021FDFFFF3F38B5144C236893F802
:1041100054309B0719D16568DDB12368FF2093F8FF
:10412000B9100DF05FF928460DF0F4FE236893F8FE
:10413000B930033B012B94BF282000200DF050FF25
:104140002368072283F8702038BD03F0A1F90546E3
:10415000E2E740F2DD413220FCF70AFCE40B0021EB
:10416000F0B5514C00220E460546236841F27070AE
:1041700083B0196D5A72CA69B1F800C0A3F80AC0B9
:10418000A2F57A7C844540F281804848A0FB020277
:10419000C2F38F221A848A8C5A84CA8C9A844FF470
:1041A0007F42DA844FF6FF721A85002D64D0012118
:1041B000304615F0DCF83278D209236893F84810BD
:1041C00009B1002A36D193F88600002108285961E8
:1041D00019833CD003F10E0203F10D0107F0C0FE7C
:1041E00000285BD023685A7B03F11A0742F00202D1
:1041F0005A73002D3AD103F1980002683A60828820
:10420000BA8093F95810186D08F0E0F82068284932
:1042100015F0D6FA236827491A6D03F12A0014888D
:10422000A3F8334092F8A62083F8352015F0D1FA90
:1042300003B0F0BD427902F0C002402AC3D1026847
:104240005A61828893F886001A830828C2D193F8AD
:104250009E10D3F89820B3F89C0059730021C3F83E
:104260000E205882C3F81A10D983CAE700213046BD
:1042700015F07DF82368C0E76068694614F02AFFEE
:10428000636868461A78C2F3801296E70A48A0FB72
:104290000202920902F5506292B27BE741F2DA31F2
:1042A0003220FCF765FB00BFE40B00215917B7D1A2
:1042B000713E0001453E0001D34D621008B500205B
:1042C00003F02AFA08F09EF8024B024601201A7009
:1042D00008BD00BF10000021034A0223106880F8C7
:1042E000703004F0DBBD00BFE40B002140F25A3116
:1042F000322008B5FCF73CFB30B504788DB004F0F3
:104300000F0402A9224603F0C7FB0DF0EFFC08F0F2
:1043100079F8204B042C187002D003200DB030BD6A
:104320001D490546039A0868147890F898108C4245
:10433000F3D1547890F899108C42EED1947890F89B
:104340009A108C42E9D1D47890F89B108C42E4D139
:10435000147990F89C108C42DFD1517990F89D200F
:104360009142DAD19DF8191090F89E209142D4D153
:104370007F2D0CD07F2202A97C301A7090F82C304F
:10438000827A009503F0E2FA03200DB030BDFFF70A
:10439000ADFF00BF10000021E40B00212DE9F04F1C
:1043A000044687B006290CD8DFE801F0AC34110BC5
:1043B0000B0B0400BA4D286890F88C30002B40F0AD
:1043C000CD800DF093FC032007B0BDE8F08F0DF019
:1043D0008DFCB34B186890F854309D07F3D090F8DB
:1043E0008C30002BEFD0AF4B93F900207F2A00F0E8
:1043F00009820292FF2590F886107F22CDE90051B4
:104400001A70214600F1420302227C3003F0F2F9D7
:104410000320D9E7A24D867C2968012E91F88C30C3
:1044200091F88D90059391F8483083F0010B00F0DE
:10443000B480002691F85420374612F0040000F0B2
:10444000B48091F84D30002B00F0AF8091F8888057
:10445000B8F1080F40F0AC8091F841800027C446C5
:1044600020B3626891F85B0092F800E0864500F0A6
:1044700062814FF0000A91F88520082A05D091F852
:104480008800904208BF4FF0010A002F40F0F280F0
:10449000BBF1000F40F048813846B9F1000F40F001
:1044A000EB800DF023FC2B6893F8542093078AD0FF
:1044B0000DF01CFC059B002B85D02868A36800F13B
:1044C0004201A27C90F8410014F004FC17B90028C6
:1044D00000F06E81734A92F900307F2B00F09281D8
:1044E00002932146286890F8864000F14203CDF8F7
:1044F00000807C3001947F241470012203F07AF94B
:10450000032061E7664D286890F854305F071BD59B
:1045100090F88D30002B5DD0636890F85B2019789F
:10452000914200F0DC8090F85630012B00F0B3800F
:1045300090F88830082B04D090F885209A4200F03B
:10454000AA800DF0D3FB286890F88C30002B46D160
:1045500090F88D30002B7FF436AF32E790F854306E
:10456000990769D54F4A92F900307F2B00F04A81B4
:104570000293214690F886307F240193FF23009315
:1045800000F1420314707C30062203F033F92B68EB
:104590000022092083F8A82016E78268527902F0E9
:1045A000C002402A7FF445AF44E791F885804FE789
:1045B000404607F0E3FB002818BF8346002F40F079
:1045C000E780296891F8418091F85420C44602F0B0
:1045D000040045E790F88C30002B3FF4F2AE90F8E1
:1045E00054309E0760D4D8077FF5EDAE590700F12F
:1045F00002812C4B93F900207F2A00F003817F2059
:104600000292FF26002218702146286890F8863012
:10461000CDE9006300F142037C3003F0EBF82B6836
:10462000032093F88D20002A7FF4CEAE93F88C30CF
:10463000002B7FF4C9AEC4E6DA077FF5C2AE5B0794
:1046400000F1D680174B93F900207F2A00F0DA8022
:104650002868FF2502927F2290F88610CDE900514C
:104660001A70214600F1420306227C3003F0C2F8A2
:104670000320A9E6012010E72B6893F85630012BA0
:1046800006D0002B7FF40DAFBAF1000F3FF409AF55
:1046900000283FF406AF0A2007B0BDE8F08F00BF46
:1046A000E40B002110000021574A92F900307F2BC3
:1046B00000F0A8800293214690F886307F24019371
:1046C000FF23009300F1420314707C30002203F0BA
:1046D00091F82B680122092083F8A820A1E75978D6
:1046E00090F85C2091427FF41EAF997890F85D209D
:1046F00091427FF418AFD97890F85E2091427FF410
:1047000012AF197990F85F2091427FF40CAF5A797B
:1047100090F860309A427FF406AF627C90F85A308D
:104720009A427FF400AFB6E742316046A368A27CAC
:1047300014F0D0FAB1E692F801E091F85C008645F9
:104740007FF497AE92F802E091F85D0086457FF421
:1047500090AE92F803E091F85E0086457FF489AE52
:1047600092F804E091F85F0086457FF482AE5079BC
:1047700091F8602090427FF47CAE94F811A091F8FB
:104780005A20AAEB0202D2F1000A4AEB020A72E6B0
:10479000A168404607F0D4FC2968074691F841C05B
:1047A00091F8542050B34CF0020802F0040057E690
:1047B000286890F85530023B012B3FF604AE002EDE
:1047C0003FF401AE104B93F900207F2A1AD00292D9
:1047D000FE2590F886107F22CDE900511A702146FF
:1047E00000F1420301227C3003F004F80320EBE5E2
:1047F0000DF07CFA26E70DF079FAFAE6E04602F0D1
:1048000004002DE6FFF772FD1000002130B5184CB2
:1048100085B094F900307F2B27D00A467F21217084
:1048200014490C6894F87010032916D094F870108D
:1048300006290CBF03210121CDE9023194F88650ED
:10484000014604F14203019594F8B900009000205C
:1048500002F05CFE18B905B030BD0021ECE7002085
:1048600005B0BDE8304002F057BFFFF73FFD00BF85
:1048700010000021E40B00210F4A136810B593F8D3
:10488000701002290ED993F8701008290FD893F8E8
:1048900070109268094B92680B44BDE8104052F8C2
:1048A0002330184741F291413220FCF761F841F280
:1048B00092413220FCF75CF8E40B0021FDFFFF3F42
:1048C00038B51C4D2B6893F87020022A2DD8027C35
:1048D000044683F884201A44C168596792F8BD20C1
:1048E00083F8B9204268C3F88020037A022B0ED0E7
:1048F0000CF0DCFD0DF0BEFB0CF052FA0E480DF092
:10490000F3FA0E480DF0EAFA0D480CF0E1FE637C74
:1049100003B938BD2868643014F0D2F92B68DB6E17
:10492000002BF6D001221A6038BD40F6AC013220CF
:10493000FCF71EF8E40B0021C40100215555550079
:10494000D6BE898E38B505460C4606F089FF42076B
:1049500004D4A37803F0E003402B0DD006F080FFD1
:10496000830704D4A37803F0E003202B04D023783A
:1049700003F03F03242B01D9002038BD0CF0CEFCFE
:1049800094F9003094F802C0002B62780CF01F03F9
:10499000ACBF1E214FF4967142EA032301FB03F3DF
:1049A0001A1AB2F5877FE7D39842E5D8054A294617
:1049B00023881068A0F8BA3080F8BCC0BDE8384041
:1049C00004F004BAE40B002170B5334E84B03368B0
:1049D00093F88C507DB30A4693F8A810044631B979
:1049E000017800290CBF0121022183F8A81093F857
:1049F00070100629C8B241D0072814BF012502252E
:104A0000264991F900007F2843D04233CDE90205C1
:104A100093F84400019093F8770000907F2008708D
:104A20002146002002F072FD40B9022D28D000205E
:104A3000054602F09BFE284604B070BD6378DB0695
:104A40001ED5A1690220FFF77DFF05460028EED0A4
:104A50003368002283F894206169C1B14A780978EB
:104A6000100902F00F0241EA0222A3F8962083F80F
:104A700095000DF03BF9284604B070BD0325BFE753
:104A80000020054602F048FE284604B070BDFF2015
:104A9000EDE7FFF72BFC00BFE40B00211000002125
:104AA00010B504468AB007F0ADFC194A237810709F
:104AB00003F00F03072B02D001200AB010BD2046DF
:104AC000694603F087F8684603F072F99DF80030F4
:104AD000002BF1D19DF80130DB07EDD50D4C01998C
:104AE00022689DF8110002F1980392F89E2014F0BC
:104AF000F1F80028E0D020680121903013F019FD72
:104B0000FF216846FFF760FF0028D5D00220D4E7D8
:104B100010000021E40B00212DE9F04104468AB089
:104B200007F070FC4E4A2378107003F00F03082B37
:104B300004D0012420460AB0BDE8F0816946204631
:104B400002F0DEFF9DF80030002BF2D19DF801301D
:104B500003F00303032BECD1424E356895F84D303A
:104B6000002B46D095F8888095F88930002B43D1EA
:104B7000002705F1980395F89E2001999DF81100F2
:104B800014F0A8F808B9002FD3D0336895F848205E
:104B900093F8417003F14205002A49D19DF81200B3
:104BA0000299012834D02B463A4614F093F8002895
:104BB000BFD030680121903013F0BBFC356895F808
:104BC0008930002B43D121460120FFF7C9FA306814
:104BD00090F8543013F0030432D023F0040303217F
:104BE00080F854300C4604F0FFFA002002F068FC14
:104BF000A0E795F88580B7E714F0B0F80828B7D09B
:104C0000A0EB080785F88600B7FA87F77F09B0E7B9
:104C10004B7903F0C003402BC5D12B463A4614F024
:104C200059F80028C5D10299404607F089FABEE735
:104C3000404607F0BFFA0028B0D005460127ADE78F
:104C4000022104F0D1FA204602F03AFC72E70DF09E
:104C500011FA0CF0A5F8002385F88930B3E700BFFE
:104C600010000021E40B00212DE9F04FDFF8F8A03F
:104C70009346847C83B0DAF800200646012C8946EE
:104C800092F84870984687F001073ED0002492F8C9
:104C90008950234605B392F85410490725D470680B
:104CA000002839D092F88550082D26D02846019347
:104CB00007F064F8019B002818BF07461BB3DAF819
:104CC000003093F88B3083B314F052F8DAF80030E8
:104CD0000022054683F88B208BF8005089F80040AD
:104CE00088F8007003B0BDE8F08F92F84D100029ED
:104CF000D5D092F88850082DD8D123B1DAF80050D9
:104D000095F88A10B9B10025E6E783685B7903F06E
:104D1000C003402BBAD1BAE7019302F093FE019B86
:104D20000028EAD0DAF80020BCE72846B16807F08E
:104D300007FA0546D0E7B068019107F029F9DAF8DB
:104D4000003085F8890093F88950002DC4D014F004
:104D500005F80828019904D0DAF8003083F88500B6
:104D6000BAE70D46B8E700BFE40B00212DE9F0419A
:104D70006A4C002205460F466368D4F80080184646
:104D80001A800DF0C7F8032D37D0052D4AD0606882
:104D900008F1980114F0A5F998F89E10606814F0D5
:104DA000B4F9236893F8482003F1420693F8417060
:104DB00052B193F85420520718D493F8850007F0A5
:104DC000F9F908B1064601273146606814F07BF90D
:104DD0003946606814F08CF9514BD3F80431002B3C
:104DE00040F09680052D12D0BDE8F08193F84D205B
:104DF000002AE2D093F88800E1E76068037823F0A6
:104E00000F0343F0030303700C234370C0E72368D0
:104E100031681A6DC2F80A10B188D1811B6D5F72BA
:104E2000BDE8F081D4E9000622233178737021F0C7
:104E30002F0141EA471141F00501317041F64B5114
:104E4000036D1B6AC6F80F30026D936BF3741F0A73
:104E50001B0C37757375D369B2F840708B42D16BF8
:104E60003BD9DFF8C0C0ACFB01E1ACFB07C7890A46
:104E7000BF0AF175C1F30721B77531762949A1FB46
:104E80000313C3F38F2373761B0AB376938CF376E5
:104E90001B0A3377D38C73771B0AB377D2F8A7300A
:104EA000C6F81F3092F8AB3096F8242086F82330ED
:104EB000036D22F01F0293F8B23003F01F03134377
:104EC00086F8243006F0F2FC96F8243003F01F0335
:104ED00043EA401386F8243059E7DFF84CC0ACFBB6
:104EE00001E1ACFB07C749097F09F175C1F307214F
:104EF000B775A3F57A77317641F270718F42BDD8DC
:104F00000A49A1FB03139B0903F550639BB2BAE75F
:104F100040F2F9513220FBF72BFD00BFE40B0021DA
:104F2000008000415917B7D11F85EB51D34D621056
:104F300010B507F067FA0B4A0B4B1468187094F819
:104F400089301BB90CF0D2FE032010BD0DF092F891
:104F50000BF026FF002384F889300CF0C7FE0320F5
:104F600010BD00BFE40B00211000002170B51F4CE4
:104F70000E20236893F8B9100CF034FA236893F8E4
:104F800054309B0729D165685DB328460CF0C2FFF9
:104F9000236893F8B930033B012B94BF28200020ED
:104FA0000DF01EF82668681D96F8B95007F01EF837
:104FB000236886F8890093F8892052B1033D012DBA
:104FC00094BF552550250BF0CFFE28460DF046F82E
:104FD0002368082283F8702070BD02F059FA054654
:104FE000D2E740F2CA413220FBF7C2FCE40B0021B9
:104FF000F8B52E4C0546236893F8BC205F2A2CD8C0
:1050000051092B4A565C93F8BA0000F03F000CF0AF
:1050100069FB236893F958000CF054FBFDB1236839
:1050200032460120596F0CF0E1FC2368314693F8B9
:105030009430022B0CBF4020FF200CF0D3F92568E0
:1050400095F854309B0710D195F8A8306768A3B144
:105050003846BDE8F8400CF05DBF0026D3E7324685
:10506000732101200CF0C2FCDFE702F011FA256881
:10507000074695F8A830002BEAD1781D06F0B6FF58
:10508000236885F8890093F88930002BE0D0033E2F
:10509000012E94BF552450240BF066FE20460CF0E0
:1050A000DDFF3846BDE8F8400CF034BFE40B0021CA
:1050B000CC670201F0B52F4C83B00546236893F806
:1050C000BC205F2A30D851092B4A575C5A6F7ABBF3
:1050D000D3F880000CF056FF266896F854309A07F3
:1050E00003D596F89420022A34D05B072ED425BB32
:1050F000284602F0A7FC014628460D4602F0ACFC0B
:10510000024606F1A9002946256895F8943095F8DD
:10511000B950009502F0F4FD2368002283F8B970BD
:1051200083F88A2003B0F0BD5A6F0027002ACFD041
:105130000120FFF75DFF2368CAE7002002F09CFC16
:10514000014606F1A90002F0D1FDE5E796F894309A
:10515000012BCCD1FB1E012B05D9394600200CF0C8
:10516000A3FF2668C3E796F85930012B14BF3946D0
:105170000321F3E7E40B0021CC67020107292DE9A5
:10518000F04F0D4687B004469046476803D12FB9CB
:10519000002A00F0C880002F00F09080637CDFF8C8
:1051A000C092012B5DD0072D40D0D9F8003093F884
:1051B0008500082840D00DF10F0104AA06F0D0FEAA
:1051C000002800F0488104A99DF80F0014F0CBFFDF
:1051D0000746D9F8006096F8543013F0030076D1F2
:1051E000824613F0040386F88CA040F0C8800021AA
:1051F0009C4B86F88D101B6833B14146204698477A
:1052000086F88E00D9F80060636843B1627C86F846
:105210009E201A68C6F898209B88A6F89C30A06843
:1052200008B1072D39D007B0BDE8F08FD9F800607C
:1052300096F885000828BED16168607C14F093FF61
:10524000D9F80020074661688532607C06F0BEFD13
:105250000028BED1D9F80060A6F88C0086F88E0030
:10526000DDE77B7903F0C003402B9CD1D9F80060C7
:10527000072D96F8893000F0A480002BD8D013F0C9
:105280006DFDD9F8003086F88500012293F885007D
:1052900083F88A2083F886008BE7D6F88C3096F85E
:1052A000851033F07F43BED00829BCD006F08EFEB7
:1052B000D9F80030012283F88B20B4E7DFF8A09101
:1052C000D9F8006096F8543013F0030088D0062D0A
:1052D00096F84CA070D9082D00F28C8096F88CB00E
:1052E0008BF00101B8F1000F0CBF002101F00101AA
:1052F00000297FD16268002A5ED1B8F1000F40F02A
:1053000093806278D00640F18F80012086F88C006F
:1053100058077FF56DAF96F84D1096F88DA0D3061F
:1053200074D5012164E7DFF83891D9F8002092F8AC
:10533000543013F0030118BF012113F0040382F865
:105340008C1005D00378A3F10103B3FA83F35B0952
:1053500082F88D3092F8AF30002B3FF464AFD9F86B
:105360000030D3F8B000503015F0FFFC00287FF477
:105370005AAFD9F80030012283F88E2053E7062D6A
:1053800096F84D1004D800297FF432AF39462FE744
:1053900096F88DA0082D3FF62AAFBAF1010F03D081
:1053A000B8F1000F7FF423AF6368002BEBD1B8F1A5
:1053B000000F2BD16278B2E7BAF1000F08BFBA46EE
:1053C0000FE7002B3FF434AFB8F1000F7FF455AF77
:1053D00096F8B91001297FF452AF384606F0D8FD8F
:1053E00086F88900D9F8006096F88930002B3FF4E0
:1053F0001FAF44E7002213F0040386F88C203FF42B
:10540000F6AE96F84D1096F88DA0C3E700200191F6
:1054100002F018FB1AEA000702D10199A9B10F4660
:10542000D9F800603946E3E6002002F00BFB1BEAE6
:10543000000B0ED1BAF1000F02D106F0C1FC82467A
:10544000D9F8006096F85430CBE606F0B9FC074670
:10545000E6E7DA46F4E740F664313220FBF788FAF3
:10546000E40B0021AC00002130B505468BB006F0FE
:10547000C9FF134B2C7802466946284604F00F04F6
:105480001A70224602F008FB214600226846FFF708
:1054900075FE21466846FEF781FF0A4B04461D68EB
:1054A00095F8893013B920460BB030BD0CF0E2FD01
:1054B0000BF076FC0023204685F889300BB030BD18
:1054C00010000021E40B002138B50F4D002002F040
:1054D0004DF92C6894F8893063B9002301212046E6
:1054E00084F87010A4F8BA3084F8BC30BDE83840B5
:1054F00003F050BE0CF0BEFD0BF052FC002384F80C
:1055000089302C68E9E700BFE40B002138B50F4D66
:1055100006F078FF0E4B2C68187094F8893063B948
:1055200000230121204684F87010A4F8BA3084F8D2
:10553000BC30BDE8384003F02DBE0CF09BFD0BF0F5
:105540002FFC002384F889302C68E9E7E40B002164
:105550001000002138B5114D002002F007F906F0C7
:1055600051FF2C680E4A94F88930107063B90023FB
:105570000121204684F87010A4F8BA3084F8BC30B9
:10558000BDE8384003F006BE0CF074FD0BF008FCDB
:10559000002384F889302C68E9E700BFE40B002180
:1055A0001000002138B5124D06F02CFF114A0021E1
:1055B0002B68107003F1900012F0BBFF2C6894F878
:1055C000893063B900230121204684F87010A4F8C3
:1055D000BA3084F8BC30BDE8384003F0DBBD0CF0D5
:1055E00049FD0BF0DDFB002384F889302C68E9E7E6
:1055F000E40B00211000002138B5144D002002F00A
:105600008BF806F0FFFE024628680021104B903010
:105610001A7012F08EFF2C6894F8893063B9002359
:105620000121204684F87010A4F8BA3084F8BC3008
:10563000BDE8384003F0AEBD0CF01CFD0BF0B0FB34
:10564000002384F889302C68E9E700BFE40B0021CF
:105650001000002170B5154D0521286803F0B6FB38
:1056600050B12B68012093F8B9100CF01DFD2B6888
:105670000B2283F8702070BD2E6896F8893063B9CC
:1056800000230121304686F87010A6F8BA3086F85B
:10569000BC30BDE8704003F07DBD04460CF0EAFC70
:1056A0000BF07EFB86F889402E68E9E7E40B0021C9
:1056B00070B5164D00210320FFF758FB0321286821
:1056C00003F084FB40B1012108460CF0EDFC2B688F
:1056D000092283F8702070BD2E6896F8893063B96E
:1056E00000230121304686F87010A6F8BA3086F8FB
:1056F000BC30BDE8704003F04DBD04460CF0BAFC70
:105700000BF04EFB86F889402E68E9E7E40B002198
:1057100070B5244C236893F8BC205F2A29D851091E
:10572000214A565C5A6F42BBD3F880000CF02AFC29
:10573000256895F854309A0703D595F89420022AE5
:1057400020D05B0703D595F89430012B1AD00020A8
:1057500002F092F9014605F1A90002F0C7FA2368A8
:105760000021062283F8B96083F88A1083F870203C
:1057700070BD5A6F0026002AD6D00120FFF738FCF2
:105780002368D1E7F31E012B05D9314600200CF028
:105790008BFC2568DBE795F85930012B14BF3146A7
:1057A0000321F3E7E40B0021CC670201F0B52B4C99
:1057B00083B0236893F8BC205F2A35D85109284A62
:1057C000575C5A6FA2BBD3F880000CF0DBFB256856
:1057D00095F854309A0703D595F89420022A2CD0D6
:1057E0005B0703D595F89430012B26D0002002F0FA
:1057F00029F90646002002F02FF9024605F1A9001A
:105800002568314695F8943095F8B950009502F026
:1058100077FA23680021052283F8B97083F88A108B
:1058200083F8702003B0F0BD5A6F0027002ACAD059
:105830000120FFF7DDFB2368C5E7FB1E012B05D91F
:10584000394600200CF030FC2568CFE795F8593038
:10585000012B14BF39460321F3E700BFE40B0021FD
:10586000CC67020170B5234C236893F854309B0732
:105870002FD16068C0B30C232068012180F87030FC
:1058800003F0B2FC00210520FFF770FA0621206822
:1058900003F09CFA054658B12368012093F8B9102B
:1058A0000CF002FC236801221B6D83F8A62070BD5A
:1058B000266896F889307BB900230121304686F8A6
:1058C0007010A6F8BA3086F8BC30BDE8704003F01E
:1058D00061BC01F0DDFDCDE70CF0CCFB0BF060FA14
:1058E00086F889502668E7E740F247513220FBF7F7
:1058F0003FF800BFE40B0021012970B515D1A0B914
:105900001E4A136893F8701008292DD993F8701067
:105910000C292ED893F870109268194B52680B44DA
:10592000BDE8704052F823301847144D002001F0B4
:105930001DFF2C6894F889306BB9002304F1BA027A
:1059400001212046A4F8BA3084F870109370BDE8A5
:10595000704003F01FBC0CF08DFB0BF021FA00230C
:1059600084F889302C68E8E741F261413220FAF787
:10597000FFFF41F262413220FAF7FAFFE40B002107
:10598000F7FFFF3F30B5244D83B02B68D86F01F08F
:1059900067FD00283BD004460A232868002180F8D0
:1059A000703003F021FC2A6823780520126D92F8EC
:1059B000A64004EA531404F001042146FFF7D6F987
:1059C0000421286803F002FA28B12B681B6D83F8C4
:1059D000A64003B030BD2C6894F889306BB9002321
:1059E0000121204684F87010A4F8BA3084F8BC3045
:1059F00003B0BDE8304003F0CDBB01900CF03AFBA2
:105A00000BF0CEF9019884F889002C68E7E740F2A2
:105A100022513220FAF7ACFFE40B0021F0B5684CBC
:105A200083B0002001F04CFD256801F0DDFC236807
:105A3000E867D86F002800F0BD8001F011FD054631
:105A4000002800F0B280236893F8B430002B67D1AF
:105A5000206890F8843090F87020034493F8BD706B
:105A600080F8B9701AB190F87030012B76D190F8A7
:105A70008720544B134418790BF034FE236893F8B5
:105A80008420134493F8BD60022E65D041D9F31EE3
:105A9000012B40D801F0A2FC31460BF0A3FC2846B4
:105AA0000CF038FA314601200BF022FE012F46D0CF
:105AB000681D256806F09AFA236885F8890093F82E
:105AC000892052B1033F012F94BF552550250BF07B
:105AD0004BF928460CF0C2FA236893F8542012F0D0
